{
  "contractName": "Biglietti",
  "abi": [
    {
      "constant": true,
      "inputs": [
        {
          "name": "",
          "type": "uint256"
        }
      ],
      "name": "lista_biglietti",
      "outputs": [
        {
          "name": "id",
          "type": "uint256"
        },
        {
          "name": "typeb",
          "type": "uint8"
        },
        {
          "name": "timestamp",
          "type": "string"
        },
        {
          "name": "prezzo",
          "type": "string"
        },
        {
          "name": "cod_sigillo",
          "type": "string"
        },
        {
          "name": "state",
          "type": "uint8"
        }
      ],
      "payable": false,
      "stateMutability": "view",
      "type": "function"
    },
    {
      "inputs": [
        {
          "name": "eventoAddress_",
          "type": "address"
        }
      ],
      "payable": false,
      "stateMutability": "nonpayable",
      "type": "constructor"
    },
    {
      "anonymous": false,
      "inputs": [
        {
          "indexed": false,
          "name": "cod_sigillo",
          "type": "string"
        },
        {
          "indexed": false,
          "name": "evento",
          "type": "string"
        },
        {
          "indexed": false,
          "name": "prezzo",
          "type": "string"
        }
      ],
      "name": "Validato",
      "type": "event"
    },
    {
      "constant": false,
      "inputs": [
        {
          "name": "timestamp",
          "type": "string"
        },
        {
          "name": "prezzo",
          "type": "string"
        },
        {
          "name": "tipoBiglietto",
          "type": "uint8"
        }
      ],
      "name": "storeItem",
      "outputs": [],
      "payable": false,
      "stateMutability": "nonpayable",
      "type": "function"
    },
    {
      "constant": false,
      "inputs": [
        {
          "name": "id",
          "type": "uint256"
        }
      ],
      "name": "setValidoBiglietto",
      "outputs": [],
      "payable": false,
      "stateMutability": "nonpayable",
      "type": "function"
    },
    {
      "constant": true,
      "inputs": [],
      "name": "getEventoInfo",
      "outputs": [
        {
          "name": "",
          "type": "string"
        }
      ],
      "payable": false,
      "stateMutability": "view",
      "type": "function"
    },
    {
      "constant": false,
      "inputs": [
        {
          "name": "id",
          "type": "uint256"
        }
      ],
      "name": "setAnnulatoBiglietto",
      "outputs": [],
      "payable": false,
      "stateMutability": "nonpayable",
      "type": "function"
    },
    {
      "constant": false,
      "inputs": [
        {
          "name": "id",
          "type": "uint256"
        }
      ],
      "name": "setInvalidatoBiglietto",
      "outputs": [],
      "payable": false,
      "stateMutability": "nonpayable",
      "type": "function"
    },
    {
      "constant": true,
      "inputs": [],
      "name": "getGiornale",
      "outputs": [
        {
          "components": [
            {
              "name": "id",
              "type": "uint256"
            },
            {
              "name": "typeb",
              "type": "uint8"
            },
            {
              "name": "timestamp",
              "type": "string"
            },
            {
              "name": "prezzo",
              "type": "string"
            },
            {
              "name": "cod_sigillo",
              "type": "string"
            },
            {
              "name": "state",
              "type": "uint8"
            }
          ],
          "name": "",
          "type": "tuple[]"
        }
      ],
      "payable": false,
      "stateMutability": "view",
      "type": "function"
    },
    {
      "constant": true,
      "inputs": [],
      "name": "getLength",
      "outputs": [
        {
          "name": "",
          "type": "uint256"
        }
      ],
      "payable": false,
      "stateMutability": "view",
      "type": "function"
    },
    {
      "constant": true,
      "inputs": [
        {
          "name": "posx",
          "type": "uint256"
        }
      ],
      "name": "getId",
      "outputs": [
        {
          "name": "",
          "type": "uint256"
        }
      ],
      "payable": false,
      "stateMutability": "view",
      "type": "function"
    },
    {
      "constant": false,
      "inputs": [
        {
          "name": "id",
          "type": "uint256"
        },
        {
          "name": "sigillo",
          "type": "string"
        },
        {
          "name": "codiceTransazione",
          "type": "string"
        }
      ],
      "name": "setSigillo",
      "outputs": [],
      "payable": false,
      "stateMutability": "nonpayable",
      "type": "function"
    },
    {
      "constant": true,
      "inputs": [
        {
          "name": "id",
          "type": "uint256"
        }
      ],
      "name": "getSigillo",
      "outputs": [
        {
          "name": "",
          "type": "string"
        }
      ],
      "payable": false,
      "stateMutability": "view",
      "type": "function"
    },
    {
      "constant": true,
      "inputs": [
        {
          "name": "id",
          "type": "uint256"
        }
      ],
      "name": "getTipoBiglietto",
      "outputs": [
        {
          "name": "",
          "type": "string"
        }
      ],
      "payable": false,
      "stateMutability": "view",
      "type": "function"
    },
    {
      "constant": true,
      "inputs": [
        {
          "name": "codiceTransazione",
          "type": "string"
        }
      ],
      "name": "statusPagamento",
      "outputs": [
        {
          "name": "",
          "type": "bool"
        }
      ],
      "payable": false,
      "stateMutability": "view",
      "type": "function"
    },
    {
      "constant": true,
      "inputs": [],
      "name": "getPostiRimanenti",
      "outputs": [
        {
          "name": "",
          "type": "uint256"
        }
      ],
      "payable": false,
      "stateMutability": "view",
      "type": "function"
    },
    {
      "constant": true,
      "inputs": [
        {
          "name": "id",
          "type": "uint256"
        }
      ],
      "name": "getPrezzo",
      "outputs": [
        {
          "name": "",
          "type": "string"
        }
      ],
      "payable": false,
      "stateMutability": "view",
      "type": "function"
    }
  ],
  "bytecode": "0x60806040523480156200001157600080fd5b506040516020806200213d8339810180604052620000339190810190620000d9565b80600160006101000a81548173ffffffffffffffffffffffffffffffffffffffff021916908373ffffffffffffffffffffffffffffffffffffffff160217905550336000806101000a81548173ffffffffffffffffffffffffffffffffffffffff021916908373ffffffffffffffffffffffffffffffffffffffff16021790555060006003819055505062000139565b6000620000d1825162000125565b905092915050565b600060208284031215620000ec57600080fd5b6000620000fc84828501620000c3565b91505092915050565b600073ffffffffffffffffffffffffffffffffffffffff82169050919050565b6000620001328262000105565b9050919050565b611ff480620001496000396000f3fe6080604052600436106100d4576000357c010000000000000000000000000000000000000000000000000000000090048062d5788c146100d957806309dc0058146101025780632a9e54881461013f5780632aa8a4a01461016a578063545a153a146101935780637776f68c146101d05780637f5510e4146102125780639dd130f51461023d578063b3b0a29c1461027a578063be1c766b146102b7578063c11523f8146102e2578063c7ab74be1461030b578063dad9fe6914610334578063fa017a041461035d578063fee2f37314610388575b600080fd5b3480156100e557600080fd5b5061010060048036036100fb9190810190611a05565b6103c5565b005b34801561010e57600080fd5b5061012960048036036101249190810190611983565b6105a2565b6040516101369190611d24565b60405180910390f35b34801561014b57600080fd5b50610154610737565b6040516101619190611dad565b60405180910390f35b34801561017657600080fd5b50610191600480360361018c9190810190611a84565b610814565b005b34801561019f57600080fd5b506101ba60048036036101b59190810190611a84565b61097e565b6040516101c79190611dad565b60405180910390f35b3480156101dc57600080fd5b506101f760048036036101f29190810190611a84565b6109a8565b60405161020996959493929190611dc8565b60405180910390f35b34801561021e57600080fd5b50610227610bd5565b6040516102349190611d02565b60405180910390f35b34801561024957600080fd5b50610264600480360361025f9190810190611a84565b610e7f565b6040516102719190611d3f565b60405180910390f35b34801561028657600080fd5b506102a1600480360361029c9190810190611a84565b610f41565b6040516102ae9190611d3f565b60405180910390f35b3480156102c357600080fd5b506102cc611003565b6040516102d99190611dad565b60405180910390f35b3480156102ee57600080fd5b5061030960048036036103049190810190611ad6565b61100d565b005b34801561031757600080fd5b50610332600480360361032d9190810190611a84565b6110bc565b005b34801561034057600080fd5b5061035b60048036036103569190810190611a84565b611225565b005b34801561036957600080fd5b50610372611519565b60405161037f9190611d3f565b60405180910390f35b34801561039457600080fd5b506103af60048036036103aa9190810190611a84565b6115e7565b6040516103bc9190611d3f565b60405180910390f35b6000809054906101000a900473ffffffffffffffffffffffffffffffffffffffff1673ffffffffffffffffffffffffffffffffffffffff163373ffffffffffffffffffffffffffffffffffffffff16141561059d576000610424610737565b111561059c57600260c060405190810160405280600354815260200183600281111561044c57fe5b81526020018581526020018481526020016040805190810160405280600181526020017f30000000000000000000000000000000000000000000000000000000000000008152508152602001600060038111156104a557fe5b815250908060018154018082558091505090600182039060005260206000209060060201600090919290919091506000820151816000015560208201518160010160006101000a81548160ff0219169083600281111561050157fe5b02179055506040820151816002019080519060200190610522929190611739565b50606082015181600301908051906020019061053f929190611739565b50608082015181600401908051906020019061055c929190611739565b5060a08201518160050160006101000a81548160ff0219169083600381111561058157fe5b02179055505050506003600081548092919060010191905055505b5b505050565b60008060009054906101000a900473ffffffffffffffffffffffffffffffffffffffff1673ffffffffffffffffffffffffffffffffffffffff163373ffffffffffffffffffffffffffffffffffffffff1614156107325760606040805190810160405280600281526020017f4f4b0000000000000000000000000000000000000000000000000000000000008152509050806040516020018082805190602001908083835b60208310151561066c5780518252602082019150602081019050602083039250610647565b6001836020036101000a03801982511681845116808217855250505050505090500191505060405160208183030381529060405280519060200120836040516020018082805190602001908083835b6020831015156106e057805182526020820191506020810190506020830392506106bb565b6001836020036101000a03801982511681845116808217855250505050505090500191505060405160208183030381529060405280519060200120141561072b576001915050610731565b60009150505b5b919050565b600080600160009054906101000a900473ffffffffffffffffffffffffffffffffffffffff16905060008173ffffffffffffffffffffffffffffffffffffffff1663524468e76040518163ffffffff167c010000000000000000000000000000000000000000000000000000000002815260040160206040518083038186803b1580156107c357600080fd5b505afa1580156107d7573d6000803e3d6000fd5b505050506040513d601f19601f820116820180604052506107fb9190810190611aad565b90506000610807611003565b8203905080935050505090565b6000809054906101000a900473ffffffffffffffffffffffffffffffffffffffff1673ffffffffffffffffffffffffffffffffffffffff163373ffffffffffffffffffffffffffffffffffffffff16141561097b576000600160009054906101000a900473ffffffffffffffffffffffffffffffffffffffff169050600115158173ffffffffffffffffffffffffffffffffffffffff16639b910a716040518163ffffffff167c010000000000000000000000000000000000000000000000000000000002815260040160206040518083038186803b1580156108f657600080fd5b505afa15801561090a573d6000803e3d6000fd5b505050506040513d601f19601f8201168201806040525061092e919081019061195a565b1515141561097957600360028381548110151561094757fe5b906000526020600020906006020160050160006101000a81548160ff0219169083600381111561097357fe5b02179055505b505b50565b600060028281548110151561098f57fe5b9060005260206000209060060201600001549050919050565b6002818154811015156109b757fe5b90600052602060002090600602016000915090508060000154908060010160009054906101000a900460ff1690806002018054600181600116156101000203166002900480601f016020809104026020016040519081016040528092919081815260200182805460018160011615610100020316600290048015610a7c5780601f10610a5157610100808354040283529160200191610a7c565b820191906000526020600020905b815481529060010190602001808311610a5f57829003601f168201915b505050505090806003018054600181600116156101000203166002900480601f016020809104026020016040519081016040528092919081815260200182805460018160011615610100020316600290048015610b1a5780601f10610aef57610100808354040283529160200191610b1a565b820191906000526020600020905b815481529060010190602001808311610afd57829003601f168201915b505050505090806004018054600181600116156101000203166002900480601f016020809104026020016040519081016040528092919081815260200182805460018160011615610100020316600290048015610bb85780601f10610b8d57610100808354040283529160200191610bb8565b820191906000526020600020905b815481529060010190602001808311610b9b57829003601f168201915b5050505050908060050160009054906101000a900460ff16905086565b60606002805480602002602001604051908101604052809291908181526020016000905b82821015610e76578382906000526020600020906006020160c06040519081016040529081600082015481526020016001820160009054906101000a900460ff166002811115610c4557fe5b6002811115610c5057fe5b8152602001600282018054600181600116156101000203166002900480601f016020809104026020016040519081016040528092919081815260200182805460018160011615610100020316600290048015610ced5780601f10610cc257610100808354040283529160200191610ced565b820191906000526020600020905b815481529060010190602001808311610cd057829003601f168201915b50505050508152602001600382018054600181600116156101000203166002900480601f016020809104026020016040519081016040528092919081815260200182805460018160011615610100020316600290048015610d8f5780601f10610d6457610100808354040283529160200191610d8f565b820191906000526020600020905b815481529060010190602001808311610d7257829003601f168201915b50505050508152602001600482018054600181600116156101000203166002900480601f016020809104026020016040519081016040528092919081815260200182805460018160011615610100020316600290048015610e315780601f10610e0657610100808354040283529160200191610e31565b820191906000526020600020905b815481529060010190602001808311610e1457829003601f168201915b505050505081526020016005820160009054906101000a900460ff166003811115610e5857fe5b6003811115610e6357fe5b8152505081526020019060010190610bf9565b50505050905090565b6060600282815481101515610e9057fe5b90600052602060002090600602016003018054600181600116156101000203166002900480601f016020809104026020016040519081016040528092919081815260200182805460018160011615610100020316600290048015610f355780601f10610f0a57610100808354040283529160200191610f35565b820191906000526020600020905b815481529060010190602001808311610f1857829003601f168201915b50505050509050919050565b6060600282815481101515610f5257fe5b90600052602060002090600602016004018054600181600116156101000203166002900480601f016020809104026020016040519081016040528092919081815260200182805460018160011615610100020316600290048015610ff75780601f10610fcc57610100808354040283529160200191610ff7565b820191906000526020600020905b815481529060010190602001808311610fda57829003601f168201915b50505050509050919050565b6000600354905090565b6000809054906101000a900473ffffffffffffffffffffffffffffffffffffffff1673ffffffffffffffffffffffffffffffffffffffff163373ffffffffffffffffffffffffffffffffffffffff1614156110b7576001151561106f826105a2565b151514156110b6578160028481548110151561108757fe5b906000526020600020906006020160040190805190602001906110ab9291906117b9565b506110b583611225565b5b5b505050565b6000809054906101000a900473ffffffffffffffffffffffffffffffffffffffff1673ffffffffffffffffffffffffffffffffffffffff163373ffffffffffffffffffffffffffffffffffffffff161415611222576000600160009054906101000a900473ffffffffffffffffffffffffffffffffffffffff169050600115158173ffffffffffffffffffffffffffffffffffffffff1663dd19f3556040518163ffffffff167c010000000000000000000000000000000000000000000000000000000002815260040160206040518083038186803b15801561119e57600080fd5b505afa1580156111b2573d6000803e3d6000fd5b505050506040513d601f19601f820116820180604052506111d6919081019061195a565b1515141561122057600280838154811015156111ee57fe5b906000526020600020906006020160050160006101000a81548160ff0219169083600381111561121a57fe5b02179055505b505b50565b6000809054906101000a900473ffffffffffffffffffffffffffffffffffffffff1673ffffffffffffffffffffffffffffffffffffffff163373ffffffffffffffffffffffffffffffffffffffff16141561151657600160028281548110151561128b57fe5b906000526020600020906006020160050160006101000a81548160ff021916908360038111156112b757fe5b02179055506000600160009054906101000a900473ffffffffffffffffffffffffffffffffffffffff16905060608173ffffffffffffffffffffffffffffffffffffffff16635e05db186040518163ffffffff167c010000000000000000000000000000000000000000000000000000000002815260040160006040518083038186803b15801561134757600080fd5b505afa15801561135b573d6000803e3d6000fd5b505050506040513d6000823e3d601f19601f8201168201806040525061138491908101906119c4565b90507f01f142a3bce1e0a213a006b76ccc38a4e20b90dd5c37dab2149d6f54d750531f3073ffffffffffffffffffffffffffffffffffffffff1663b3b0a29c856040518263ffffffff167c01000000000000000000000000000000000000000000000000000000000281526004016113fc9190611dad565b60006040518083038186803b15801561141457600080fd5b505afa158015611428573d6000803e3d6000fd5b505050506040513d6000823e3d601f19601f8201168201806040525061145191908101906119c4565b823073ffffffffffffffffffffffffffffffffffffffff16639dd130f5876040518263ffffffff167c01000000000000000000000000000000000000000000000000000000000281526004016114a79190611dad565b60006040518083038186803b1580156114bf57600080fd5b505afa1580156114d3573d6000803e3d6000fd5b505050506040513d6000823e3d601f19601f820116820180604052506114fc91908101906119c4565b60405161150b93929190611d61565b60405180910390a150505b50565b60606000600160009054906101000a900473ffffffffffffffffffffffffffffffffffffffff1690508073ffffffffffffffffffffffffffffffffffffffff1663a2651ffb6040518163ffffffff167c010000000000000000000000000000000000000000000000000000000002815260040160006040518083038186803b1580156115a457600080fd5b505afa1580156115b8573d6000803e3d6000fd5b505050506040513d6000823e3d601f19601f820116820180604052506115e191908101906119c4565b91505090565b6060600060028111156115f657fe5b60028381548110151561160557fe5b906000526020600020906006020160010160009054906101000a900460ff16600281111561162f57fe5b1415611672576040805190810160405280600b81526020017f5469706f6c6f67696120310000000000000000000000000000000000000000008152509050611734565b6001600281111561167f57fe5b60028381548110151561168e57fe5b906000526020600020906006020160010160009054906101000a900460ff1660028111156116b857fe5b14156116fb576040805190810160405280600b81526020017f5469706f6c6f67696120320000000000000000000000000000000000000000008152509050611734565b6040805190810160405280600b81526020017f5469706f6c6f676961203300000000000000000000000000000000000000000081525090505b919050565b828054600181600116156101000203166002900490600052602060002090601f016020900481019282601f1061177a57805160ff19168380011785556117a8565b828001600101855582156117a8579182015b828111156117a757825182559160200191906001019061178c565b5b5090506117b59190611839565b5090565b828054600181600116156101000203166002900490600052602060002090601f016020900481019282601f106117fa57805160ff1916838001178555611828565b82800160010185558215611828579182015b8281111561182757825182559160200191906001019061180c565b5b5090506118359190611839565b5090565b61185b91905b8082111561185757600081600090555060010161183f565b5090565b90565b600061186a8251611f14565b905092915050565b600061187e8235611f20565b905092915050565b600082601f830112151561189957600080fd5b81356118ac6118a782611e6b565b611e3e565b915080825260208301602083018583830111156118c857600080fd5b6118d3838284611f67565b50505092915050565b600082601f83011215156118ef57600080fd5b81516119026118fd82611e6b565b611e3e565b9150808252602083016020830185838301111561191e57600080fd5b611929838284611f76565b50505092915050565b600061193e8235611f39565b905092915050565b60006119528251611f39565b905092915050565b60006020828403121561196c57600080fd5b600061197a8482850161185e565b91505092915050565b60006020828403121561199557600080fd5b600082013567ffffffffffffffff8111156119af57600080fd5b6119bb84828501611886565b91505092915050565b6000602082840312156119d657600080fd5b600082015167ffffffffffffffff8111156119f057600080fd5b6119fc848285016118dc565b91505092915050565b600080600060608486031215611a1a57600080fd5b600084013567ffffffffffffffff811115611a3457600080fd5b611a4086828701611886565b935050602084013567ffffffffffffffff811115611a5d57600080fd5b611a6986828701611886565b9250506040611a7a86828701611872565b9150509250925092565b600060208284031215611a9657600080fd5b6000611aa484828501611932565b91505092915050565b600060208284031215611abf57600080fd5b6000611acd84828501611946565b91505092915050565b600080600060608486031215611aeb57600080fd5b6000611af986828701611932565b935050602084013567ffffffffffffffff811115611b1657600080fd5b611b2286828701611886565b925050604084013567ffffffffffffffff811115611b3f57600080fd5b611b4b86828701611886565b9150509250925092565b6000611b6082611ea4565b80845260208401935083602082028501611b7985611e97565b60005b84811015611bb2578383038852611b94838351611c5c565b9250611b9f82611ec5565b9150602088019750600181019050611b7c565b508196508694505050505092915050565b611bcc81611ed2565b82525050565b611bdb81611f43565b82525050565b611bea81611f55565b82525050565b6000611bfb82611eba565b808452611c0f816020860160208601611f76565b611c1881611fa9565b602085010191505092915050565b6000611c3182611eaf565b808452611c45816020860160208601611f76565b611c4e81611fa9565b602085010191505092915050565b600060c083016000830151611c746000860182611cf3565b506020830151611c876020860182611be1565b5060408301518482036040860152611c9f8282611c26565b91505060608301518482036060860152611cb98282611c26565b91505060808301518482036080860152611cd38282611c26565b91505060a0830151611ce860a0860182611bd2565b508091505092915050565b611cfc81611f0a565b82525050565b60006020820190508181036000830152611d1c8184611b55565b905092915050565b6000602082019050611d396000830184611bc3565b92915050565b60006020820190508181036000830152611d598184611bf0565b905092915050565b60006060820190508181036000830152611d7b8186611bf0565b90508181036020830152611d8f8185611bf0565b90508181036040830152611da38184611bf0565b9050949350505050565b6000602082019050611dc26000830184611cf3565b92915050565b600060c082019050611ddd6000830189611cf3565b611dea6020830188611be1565b8181036040830152611dfc8187611c26565b90508181036060830152611e108186611c26565b90508181036080830152611e248185611c26565b9050611e3360a0830184611bd2565b979650505050505050565b6000604051905081810181811067ffffffffffffffff82111715611e6157600080fd5b8060405250919050565b600067ffffffffffffffff821115611e8257600080fd5b601f19601f8301169050602081019050919050565b6000602082019050919050565b600081519050919050565b600081519050919050565b600081519050919050565b6000602082019050919050565b60008115159050919050565b6000600482101515611eec57fe5b819050919050565b6000600382101515611f0257fe5b819050919050565b6000819050919050565b60008115159050919050565b6000600382101515611f3157600080fd5b819050919050565b6000819050919050565b6000611f4e82611ede565b9050919050565b6000611f6082611ef4565b9050919050565b82818337600083830152505050565b60005b83811015611f94578082015181840152602081019050611f79565b83811115611fa3576000848401525b50505050565b6000601f19601f830116905091905056fea265627a7a72305820e6784d856a308610ec45fcfdee1f844f3d4bf938eba0870c7d26d89c9bfbbca56c6578706572696d656e74616cf50037",
  "source": "// SPDX-License-Identifier: GPL-3.0\npragma solidity >=0.4.22 <0.7.1;\npragma experimental ABIEncoderV2;\n\nimport \"./Evento.sol\";\n\n\ncontract Biglietti {\n\n    address owner;\n    address eventoAddress;\n\n\n    /*creato = senza sigillo, valido = con sigillo, annullato = evento annullato, invalidato = biglietto utilizzato*/\n\n    enum StatoBiglietto {creato, valido, annullato, invalidato}\n    enum TipologiaBiglietto {tipologia1, tipologia2, tipologia3}\n\n    event Validato (string cod_sigillo, string evento, string prezzo);\n\n    struct Biglietto {\n        uint id;\n        TipologiaBiglietto typeb;\n        string timestamp;\n        string prezzo;\n        string cod_sigillo;\n        StatoBiglietto state;\n    }\n\n\n    constructor(address eventoAddress_) public {\n        eventoAddress = eventoAddress_;\n        //id_evento = evento_.id_evento;\n        owner = msg.sender;\n        length = 0;\n    }\n\n    modifier restricted() {\n        if (msg.sender == owner) _;\n    }\n\n    Biglietto[] public lista_biglietti;\n\n    uint256 length;\n\n    function storeItem(string memory timestamp, string memory prezzo, TipologiaBiglietto tipoBiglietto) public restricted {\n        if (getPostiRimanenti() > 0) {\n            lista_biglietti.push(Biglietto({\n            id : length,\n            state : StatoBiglietto.creato,\n            timestamp : timestamp,\n            prezzo : prezzo,\n            cod_sigillo : \"0\",\n            typeb : tipoBiglietto\n            }));\n            length++;\n        }\n    } //TODO: cosa fare in caso di posti insufficienti? \n\n    function setValidoBiglietto(uint id) public restricted {\n        lista_biglietti[id].state = StatoBiglietto.valido;\n        Evento evento = Evento(eventoAddress);\n        string memory nome_evento = evento.getTitolo();\n        emit Validato(this.getSigillo(id), nome_evento, this.getPrezzo(id));\n    }\n\n\n    function getEventoInfo() public view returns (string memory){\n        Evento evento = Evento(eventoAddress);\n        return evento.getStatoEvento();\n    }\n\n    function setAnnulatoBiglietto(uint id) public restricted {\n        Evento evento = Evento(eventoAddress);\n        if (evento.isAnnulatoEvento() == true) {\n            lista_biglietti[id].state = StatoBiglietto.annullato;\n        }\n    }\n\n    function setInvalidatoBiglietto(uint id) public restricted {\n        Evento evento = Evento(eventoAddress);\n        if (evento.isAttivoEvento() == true) {\n            lista_biglietti[id].state = StatoBiglietto.invalidato;\n        }\n    }\n\n    function getGiornale() public view returns (Biglietto[] memory){\n        return lista_biglietti;\n    }\n\n    function getLength() public view returns (uint){\n        return length;\n    }\n\n    function getId(uint posx) public view returns (uint){\n        return lista_biglietti[posx].id;\n    }\n\n    function setSigillo(uint id, string memory sigillo, string memory codiceTransazione) public restricted {\n        if (statusPagamento(codiceTransazione) == true) {\n            lista_biglietti[id].cod_sigillo = sigillo;\n            setValidoBiglietto(id);\n        }\n    }\n\n    function getSigillo(uint id) public view returns (string memory) {\n        return lista_biglietti[id].cod_sigillo;\n    }\n\n    function getTipoBiglietto(uint id) public view returns (string memory) {\n        if (lista_biglietti[id].typeb == TipologiaBiglietto.tipologia1) {\n            return \"Tipologia 1\";\n        } else if (lista_biglietti[id].typeb == TipologiaBiglietto.tipologia2) {\n            return \"Tipologia 2\";\n        } else {\n            return \"Tipologia 3\";\n        }\n    }\n\n    function statusPagamento(string memory codiceTransazione) public restricted view returns (bool){\n        string memory OK = \"OK\";\n        if (keccak256(abi.encodePacked(codiceTransazione)) == keccak256(abi.encodePacked(OK))) {\n            return true;\n        } else {\n            return false;\n        }\n    }\n\n    function getPostiRimanenti() public view returns (uint256) {\n        Evento evento = Evento(eventoAddress);\n        uint256 totali = evento.getCapienza();\n        uint256 rimanenti = totali - Biglietti.getLength();\n        return rimanenti;\n    }\n\n    function getPrezzo(uint id) public view returns (string memory) {\n        return lista_biglietti[id].prezzo;\n    }\n}\n",
  "sourcePath": "/home/emanuele/GitHub/SoftwareCybersecurityProject/contracts/Biglietti.sol",
  "compiler": {
    "name": "solc",
    "version": "0.5.1+commit.c8a2cb62.Emscripten.clang"
  },
  "schemaVersion": "2.0.3",
  "updatedAt": "2021-07-26T15:41:31.185Z"
}