{
  "contractName": "Biglietti",
  "abi": [
    {
      "inputs": [
        {
          "internalType": "address",
          "name": "eventoAddress_",
          "type": "address"
        }
      ],
      "payable": false,
      "stateMutability": "nonpayable",
      "type": "constructor"
    },
    {
      "anonymous": false,
      "inputs": [
        {
          "indexed": false,
          "internalType": "string",
          "name": "cod_sigillo",
          "type": "string"
        },
        {
          "indexed": false,
          "internalType": "string",
          "name": "evento",
          "type": "string"
        },
        {
          "indexed": false,
          "internalType": "string",
          "name": "prezzo",
          "type": "string"
        }
      ],
      "name": "Validato",
      "type": "event"
    },
    {
      "constant": true,
      "inputs": [
        {
          "internalType": "uint256",
          "name": "",
          "type": "uint256"
        }
      ],
      "name": "lista_biglietti",
      "outputs": [
        {
          "internalType": "uint256",
          "name": "id",
          "type": "uint256"
        },
        {
          "internalType": "enum Biglietti.TipologiaBiglietto",
          "name": "typeb",
          "type": "uint8"
        },
        {
          "internalType": "string",
          "name": "timestamp",
          "type": "string"
        },
        {
          "internalType": "string",
          "name": "prezzo",
          "type": "string"
        },
        {
          "internalType": "string",
          "name": "cod_sigillo",
          "type": "string"
        },
        {
          "internalType": "enum Biglietti.StatoBiglietto",
          "name": "state",
          "type": "uint8"
        }
      ],
      "payable": false,
      "stateMutability": "view",
      "type": "function"
    },
    {
      "constant": false,
      "inputs": [
        {
          "internalType": "string",
          "name": "timestamp",
          "type": "string"
        },
        {
          "internalType": "string",
          "name": "prezzo",
          "type": "string"
        },
        {
          "internalType": "enum Biglietti.TipologiaBiglietto",
          "name": "tipoBiglietto",
          "type": "uint8"
        }
      ],
      "name": "storeItem",
      "outputs": [],
      "payable": false,
      "stateMutability": "nonpayable",
      "type": "function"
    },
    {
      "constant": false,
      "inputs": [
        {
          "internalType": "uint256",
          "name": "id",
          "type": "uint256"
        }
      ],
      "name": "setValidoBiglietto",
      "outputs": [],
      "payable": false,
      "stateMutability": "nonpayable",
      "type": "function"
    },
    {
      "constant": true,
      "inputs": [],
      "name": "getEventoInfo",
      "outputs": [
        {
          "internalType": "string",
          "name": "",
          "type": "string"
        }
      ],
      "payable": false,
      "stateMutability": "view",
      "type": "function"
    },
    {
      "constant": false,
      "inputs": [
        {
          "internalType": "uint256",
          "name": "id",
          "type": "uint256"
        }
      ],
      "name": "setAnnulatoBiglietto",
      "outputs": [],
      "payable": false,
      "stateMutability": "nonpayable",
      "type": "function"
    },
    {
      "constant": false,
      "inputs": [
        {
          "internalType": "uint256",
          "name": "id",
          "type": "uint256"
        }
      ],
      "name": "setInvalidatoBiglietto",
      "outputs": [],
      "payable": false,
      "stateMutability": "nonpayable",
      "type": "function"
    },
    {
      "constant": true,
      "inputs": [],
      "name": "getGiornale",
      "outputs": [
        {
          "components": [
            {
              "internalType": "uint256",
              "name": "id",
              "type": "uint256"
            },
            {
              "internalType": "enum Biglietti.TipologiaBiglietto",
              "name": "typeb",
              "type": "uint8"
            },
            {
              "internalType": "string",
              "name": "timestamp",
              "type": "string"
            },
            {
              "internalType": "string",
              "name": "prezzo",
              "type": "string"
            },
            {
              "internalType": "string",
              "name": "cod_sigillo",
              "type": "string"
            },
            {
              "internalType": "enum Biglietti.StatoBiglietto",
              "name": "state",
              "type": "uint8"
            }
          ],
          "internalType": "struct Biglietti.Biglietto[]",
          "name": "",
          "type": "tuple[]"
        }
      ],
      "payable": false,
      "stateMutability": "view",
      "type": "function"
    },
    {
      "constant": true,
      "inputs": [],
      "name": "getLength",
      "outputs": [
        {
          "internalType": "uint256",
          "name": "",
          "type": "uint256"
        }
      ],
      "payable": false,
      "stateMutability": "view",
      "type": "function"
    },
    {
      "constant": true,
      "inputs": [
        {
          "internalType": "uint256",
          "name": "posx",
          "type": "uint256"
        }
      ],
      "name": "getId",
      "outputs": [
        {
          "internalType": "uint256",
          "name": "",
          "type": "uint256"
        }
      ],
      "payable": false,
      "stateMutability": "view",
      "type": "function"
    },
    {
      "constant": false,
      "inputs": [
        {
          "internalType": "uint256",
          "name": "id",
          "type": "uint256"
        },
        {
          "internalType": "string",
          "name": "sigillo",
          "type": "string"
        },
        {
          "internalType": "string",
          "name": "codiceTransazione",
          "type": "string"
        }
      ],
      "name": "setSigillo",
      "outputs": [],
      "payable": false,
      "stateMutability": "nonpayable",
      "type": "function"
    },
    {
      "constant": true,
      "inputs": [
        {
          "internalType": "uint256",
          "name": "id",
          "type": "uint256"
        }
      ],
      "name": "getSigillo",
      "outputs": [
        {
          "internalType": "string",
          "name": "",
          "type": "string"
        }
      ],
      "payable": false,
      "stateMutability": "view",
      "type": "function"
    },
    {
      "constant": true,
      "inputs": [
        {
          "internalType": "uint256",
          "name": "id",
          "type": "uint256"
        }
      ],
      "name": "getTipoBiglietto",
      "outputs": [
        {
          "internalType": "string",
          "name": "",
          "type": "string"
        }
      ],
      "payable": false,
      "stateMutability": "view",
      "type": "function"
    },
    {
      "constant": true,
      "inputs": [
        {
          "internalType": "string",
          "name": "codiceTransazione",
          "type": "string"
        }
      ],
      "name": "statusPagamento",
      "outputs": [
        {
          "internalType": "bool",
          "name": "",
          "type": "bool"
        }
      ],
      "payable": false,
      "stateMutability": "view",
      "type": "function"
    },
    {
      "constant": true,
      "inputs": [],
      "name": "getPostiRimanenti",
      "outputs": [
        {
          "internalType": "uint256",
          "name": "",
          "type": "uint256"
        }
      ],
      "payable": false,
      "stateMutability": "view",
      "type": "function"
    },
    {
      "constant": true,
      "inputs": [
        {
          "internalType": "uint256",
          "name": "id",
          "type": "uint256"
        }
      ],
      "name": "getPrezzo",
      "outputs": [
        {
          "internalType": "string",
          "name": "",
          "type": "string"
        }
      ],
      "payable": false,
      "stateMutability": "view",
      "type": "function"
    }
  ],
  "bytecode": "0x60806040523480156200001157600080fd5b5060405162002081380380620020818339818101604052620000379190810190620000de565b80600160006101000a81548173ffffffffffffffffffffffffffffffffffffffff021916908373ffffffffffffffffffffffffffffffffffffffff160217905550336000806101000a81548173ffffffffffffffffffffffffffffffffffffffff021916908373ffffffffffffffffffffffffffffffffffffffff16021790555060006003819055505062000158565b600081519050620000d8816200013e565b92915050565b600060208284031215620000f157600080fd5b60006200010184828501620000c7565b91505092915050565b600062000117826200011e565b9050919050565b600073ffffffffffffffffffffffffffffffffffffffff82169050919050565b62000149816200010a565b81146200015557600080fd5b50565b611f1980620001686000396000f3fe608060405234801561001057600080fd5b50600436106100f45760003560e01c80639dd130f511610097578063c7ab74be11610066578063c7ab74be1461029c578063dad9fe69146102b8578063fa017a04146102d4578063fee2f373146102f2576100f4565b80639dd130f514610202578063b3b0a29c14610232578063be1c766b14610262578063c11523f814610280576100f4565b80632aa8a4a0116100d35780632aa8a4a014610163578063545a153a1461017f5780637776f68c146101af5780637f5510e4146101e4576100f4565b8062d5788c146100f957806309dc0058146101155780632a9e548814610145575b600080fd5b610113600480360361010e91908101906117ee565b610322565b005b61012f600480360361012a919081019061176c565b6104fe565b60405161013c9190611bdc565b60405180910390f35b61014d6105f9565b60405161015a9190611c65565b60405180910390f35b61017d6004803603610178919081019061186d565b6106ba565b005b6101996004803603610194919081019061186d565b610806565b6040516101a69190611c65565b60405180910390f35b6101c960048036036101c4919081019061186d565b61082e565b6040516101db96959493929190611c80565b60405180910390f35b6101ec610a59565b6040516101f99190611bba565b60405180910390f35b61021c6004803603610217919081019061186d565b610d02565b6040516102299190611bf7565b60405180910390f35b61024c6004803603610247919081019061186d565b610dc2565b6040516102599190611bf7565b60405180910390f35b61026a610e82565b6040516102779190611c65565b60405180910390f35b61029a600480360361029591908101906118bf565b610e8c565b005b6102b660048036036102b1919081019061186d565b610f39565b005b6102d260048036036102cd919081019061186d565b611084565b005b6102dc611322565b6040516102e99190611bf7565b60405180910390f35b61030c6004803603610307919081019061186d565b6113d4565b6040516103199190611bf7565b60405180910390f35b6000809054906101000a900473ffffffffffffffffffffffffffffffffffffffff1673ffffffffffffffffffffffffffffffffffffffff163373ffffffffffffffffffffffffffffffffffffffff1614156104f95760006103816105f9565b11156104f85760026040518060c0016040528060035481526020018360028111156103a857fe5b81526020018581526020018481526020016040518060400160405280600181526020017f300000000000000000000000000000000000000000000000000000000000000081525081526020016000600381111561040157fe5b815250908060018154018082558091505090600182039060005260206000209060060201600090919290919091506000820151816000015560208201518160010160006101000a81548160ff0219169083600281111561045d57fe5b0217905550604082015181600201908051906020019061047e929190611522565b50606082015181600301908051906020019061049b929190611522565b5060808201518160040190805190602001906104b8929190611522565b5060a08201518160050160006101000a81548160ff021916908360038111156104dd57fe5b02179055505050506003600081548092919060010191905055505b5b505050565b60008060009054906101000a900473ffffffffffffffffffffffffffffffffffffffff1673ffffffffffffffffffffffffffffffffffffffff163373ffffffffffffffffffffffffffffffffffffffff1614156105f45760606040518060400160405280600281526020017f4f4b0000000000000000000000000000000000000000000000000000000000008152509050806040516020016105a09190611ba3565b60405160208183030381529060405280519060200120836040516020016105c79190611ba3565b6040516020818303038152906040528051906020012014156105ed5760019150506105f3565b60009150505b5b919050565b600080600160009054906101000a900473ffffffffffffffffffffffffffffffffffffffff16905060008173ffffffffffffffffffffffffffffffffffffffff1663524468e76040518163ffffffff1660e01b815260040160206040518083038186803b15801561066957600080fd5b505afa15801561067d573d6000803e3d6000fd5b505050506040513d601f19601f820116820180604052506106a19190810190611896565b905060006106ad610e82565b8203905080935050505090565b6000809054906101000a900473ffffffffffffffffffffffffffffffffffffffff1673ffffffffffffffffffffffffffffffffffffffff163373ffffffffffffffffffffffffffffffffffffffff161415610803576000600160009054906101000a900473ffffffffffffffffffffffffffffffffffffffff169050600115158173ffffffffffffffffffffffffffffffffffffffff16639b910a716040518163ffffffff1660e01b815260040160206040518083038186803b15801561078057600080fd5b505afa158015610794573d6000803e3d6000fd5b505050506040513d601f19601f820116820180604052506107b89190810190611743565b15151415610801576003600283815481106107cf57fe5b906000526020600020906006020160050160006101000a81548160ff021916908360038111156107fb57fe5b02179055505b505b50565b60006002828154811061081557fe5b9060005260206000209060060201600001549050919050565b6002818154811061083b57fe5b90600052602060002090600602016000915090508060000154908060010160009054906101000a900460ff1690806002018054600181600116156101000203166002900480601f0160208091040260200160405190810160405280929190818152602001828054600181600116156101000203166002900480156109005780601f106108d557610100808354040283529160200191610900565b820191906000526020600020905b8154815290600101906020018083116108e357829003601f168201915b505050505090806003018054600181600116156101000203166002900480601f01602080910402602001604051908101604052809291908181526020018280546001816001161561010002031660029004801561099e5780601f106109735761010080835404028352916020019161099e565b820191906000526020600020905b81548152906001019060200180831161098157829003601f168201915b505050505090806004018054600181600116156101000203166002900480601f016020809104026020016040519081016040528092919081815260200182805460018160011615610100020316600290048015610a3c5780601f10610a1157610100808354040283529160200191610a3c565b820191906000526020600020905b815481529060010190602001808311610a1f57829003601f168201915b5050505050908060050160009054906101000a900460ff16905086565b60606002805480602002602001604051908101604052809291908181526020016000905b82821015610cf957838290600052602060002090600602016040518060c0016040529081600082015481526020016001820160009054906101000a900460ff166002811115610ac857fe5b6002811115610ad357fe5b8152602001600282018054600181600116156101000203166002900480601f016020809104026020016040519081016040528092919081815260200182805460018160011615610100020316600290048015610b705780601f10610b4557610100808354040283529160200191610b70565b820191906000526020600020905b815481529060010190602001808311610b5357829003601f168201915b50505050508152602001600382018054600181600116156101000203166002900480601f016020809104026020016040519081016040528092919081815260200182805460018160011615610100020316600290048015610c125780601f10610be757610100808354040283529160200191610c12565b820191906000526020600020905b815481529060010190602001808311610bf557829003601f168201915b50505050508152602001600482018054600181600116156101000203166002900480601f016020809104026020016040519081016040528092919081815260200182805460018160011615610100020316600290048015610cb45780601f10610c8957610100808354040283529160200191610cb4565b820191906000526020600020905b815481529060010190602001808311610c9757829003601f168201915b505050505081526020016005820160009054906101000a900460ff166003811115610cdb57fe5b6003811115610ce657fe5b8152505081526020019060010190610a7d565b50505050905090565b606060028281548110610d1157fe5b90600052602060002090600602016003018054600181600116156101000203166002900480601f016020809104026020016040519081016040528092919081815260200182805460018160011615610100020316600290048015610db65780601f10610d8b57610100808354040283529160200191610db6565b820191906000526020600020905b815481529060010190602001808311610d9957829003601f168201915b50505050509050919050565b606060028281548110610dd157fe5b90600052602060002090600602016004018054600181600116156101000203166002900480601f016020809104026020016040519081016040528092919081815260200182805460018160011615610100020316600290048015610e765780601f10610e4b57610100808354040283529160200191610e76565b820191906000526020600020905b815481529060010190602001808311610e5957829003601f168201915b50505050509050919050565b6000600354905090565b6000809054906101000a900473ffffffffffffffffffffffffffffffffffffffff1673ffffffffffffffffffffffffffffffffffffffff163373ffffffffffffffffffffffffffffffffffffffff161415610f345760011515610eee826104fe565b15151415610f33578160028481548110610f0457fe5b90600052602060002090600602016004019080519060200190610f289291906115a2565b50610f3283611084565b5b5b505050565b6000809054906101000a900473ffffffffffffffffffffffffffffffffffffffff1673ffffffffffffffffffffffffffffffffffffffff163373ffffffffffffffffffffffffffffffffffffffff161415611081576000600160009054906101000a900473ffffffffffffffffffffffffffffffffffffffff169050600115158173ffffffffffffffffffffffffffffffffffffffff1663dd19f3556040518163ffffffff1660e01b815260040160206040518083038186803b158015610fff57600080fd5b505afa158015611013573d6000803e3d6000fd5b505050506040513d601f19601f820116820180604052506110379190810190611743565b1515141561107f57600280838154811061104d57fe5b906000526020600020906006020160050160006101000a81548160ff0219169083600381111561107957fe5b02179055505b505b50565b6000809054906101000a900473ffffffffffffffffffffffffffffffffffffffff1673ffffffffffffffffffffffffffffffffffffffff163373ffffffffffffffffffffffffffffffffffffffff16141561131f576001600282815481106110e857fe5b906000526020600020906006020160050160006101000a81548160ff0219169083600381111561111457fe5b02179055506000600160009054906101000a900473ffffffffffffffffffffffffffffffffffffffff16905060608173ffffffffffffffffffffffffffffffffffffffff16635e05db186040518163ffffffff1660e01b815260040160006040518083038186803b15801561118857600080fd5b505afa15801561119c573d6000803e3d6000fd5b505050506040513d6000823e3d601f19601f820116820180604052506111c591908101906117ad565b90507f01f142a3bce1e0a213a006b76ccc38a4e20b90dd5c37dab2149d6f54d750531f3073ffffffffffffffffffffffffffffffffffffffff1663b3b0a29c856040518263ffffffff1660e01b81526004016112219190611c65565b60006040518083038186803b15801561123957600080fd5b505afa15801561124d573d6000803e3d6000fd5b505050506040513d6000823e3d601f19601f8201168201806040525061127691908101906117ad565b823073ffffffffffffffffffffffffffffffffffffffff16639dd130f5876040518263ffffffff1660e01b81526004016112b09190611c65565b60006040518083038186803b1580156112c857600080fd5b505afa1580156112dc573d6000803e3d6000fd5b505050506040513d6000823e3d601f19601f8201168201806040525061130591908101906117ad565b60405161131493929190611c19565b60405180910390a150505b50565b60606000600160009054906101000a900473ffffffffffffffffffffffffffffffffffffffff1690508073ffffffffffffffffffffffffffffffffffffffff1663a2651ffb6040518163ffffffff1660e01b815260040160006040518083038186803b15801561139157600080fd5b505afa1580156113a5573d6000803e3d6000fd5b505050506040513d6000823e3d601f19601f820116820180604052506113ce91908101906117ad565b91505090565b6060600060028111156113e357fe5b600283815481106113f057fe5b906000526020600020906006020160010160009054906101000a900460ff16600281111561141a57fe5b141561145d576040518060400160405280600b81526020017f5469706f6c6f6769612031000000000000000000000000000000000000000000815250905061151d565b6001600281111561146a57fe5b6002838154811061147757fe5b906000526020600020906006020160010160009054906101000a900460ff1660028111156114a157fe5b14156114e4576040518060400160405280600b81526020017f5469706f6c6f6769612032000000000000000000000000000000000000000000815250905061151d565b6040518060400160405280600b81526020017f5469706f6c6f676961203300000000000000000000000000000000000000000081525090505b919050565b828054600181600116156101000203166002900490600052602060002090601f016020900481019282601f1061156357805160ff1916838001178555611591565b82800160010185558215611591579182015b82811115611590578251825591602001919060010190611575565b5b50905061159e9190611622565b5090565b828054600181600116156101000203166002900490600052602060002090601f016020900481019282601f106115e357805160ff1916838001178555611611565b82800160010185558215611611579182015b828111156116105782518255916020019190600101906115f5565b5b50905061161e9190611622565b5090565b61164491905b80821115611640576000816000905550600101611628565b5090565b90565b60008151905061165681611e98565b92915050565b60008135905061166b81611eaf565b92915050565b600082601f83011261168257600080fd5b813561169561169082611d23565b611cf6565b915080825260208301602083018583830111156116b157600080fd5b6116bc838284611e2b565b50505092915050565b600082601f8301126116d657600080fd5b81516116e96116e482611d23565b611cf6565b9150808252602083016020830185838301111561170557600080fd5b611710838284611e3a565b50505092915050565b60008135905061172881611ebf565b92915050565b60008151905061173d81611ebf565b92915050565b60006020828403121561175557600080fd5b600061176384828501611647565b91505092915050565b60006020828403121561177e57600080fd5b600082013567ffffffffffffffff81111561179857600080fd5b6117a484828501611671565b91505092915050565b6000602082840312156117bf57600080fd5b600082015167ffffffffffffffff8111156117d957600080fd5b6117e5848285016116c5565b91505092915050565b60008060006060848603121561180357600080fd5b600084013567ffffffffffffffff81111561181d57600080fd5b61182986828701611671565b935050602084013567ffffffffffffffff81111561184657600080fd5b61185286828701611671565b92505060406118638682870161165c565b9150509250925092565b60006020828403121561187f57600080fd5b600061188d84828501611719565b91505092915050565b6000602082840312156118a857600080fd5b60006118b68482850161172e565b91505092915050565b6000806000606084860312156118d457600080fd5b60006118e286828701611719565b935050602084013567ffffffffffffffff8111156118ff57600080fd5b61190b86828701611671565b925050604084013567ffffffffffffffff81111561192857600080fd5b61193486828701611671565b9150509250925092565b600061194a8383611aee565b905092915050565b600061195d82611d5f565b6119678185611d8d565b93508360208202850161197985611d4f565b8060005b858110156119b55784840389528151611996858261193e565b94506119a183611d80565b925060208a0199505060018101905061197d565b50829750879550505050505092915050565b6119d081611dcb565b82525050565b6119df81611e07565b82525050565b6119ee81611e07565b82525050565b6119fd81611e19565b82525050565b611a0c81611e19565b82525050565b6000611a1d82611d75565b611a278185611daf565b9350611a37818560208601611e3a565b611a4081611e6d565b840191505092915050565b6000611a5682611d75565b611a608185611dc0565b9350611a70818560208601611e3a565b80840191505092915050565b6000611a8782611d6a565b611a918185611d9e565b9350611aa1818560208601611e3a565b611aaa81611e6d565b840191505092915050565b6000611ac082611d6a565b611aca8185611daf565b9350611ada818560208601611e3a565b611ae381611e6d565b840191505092915050565b600060c083016000830151611b066000860182611b85565b506020830151611b1960208601826119f4565b5060408301518482036040860152611b318282611a7c565b91505060608301518482036060860152611b4b8282611a7c565b91505060808301518482036080860152611b658282611a7c565b91505060a0830151611b7a60a08601826119d6565b508091505092915050565b611b8e81611dfd565b82525050565b611b9d81611dfd565b82525050565b6000611baf8284611a4b565b915081905092915050565b60006020820190508181036000830152611bd48184611952565b905092915050565b6000602082019050611bf160008301846119c7565b92915050565b60006020820190508181036000830152611c118184611a12565b905092915050565b60006060820190508181036000830152611c338186611a12565b90508181036020830152611c478185611a12565b90508181036040830152611c5b8184611a12565b9050949350505050565b6000602082019050611c7a6000830184611b94565b92915050565b600060c082019050611c956000830189611b94565b611ca26020830188611a03565b8181036040830152611cb48187611ab5565b90508181036060830152611cc88186611ab5565b90508181036080830152611cdc8185611ab5565b9050611ceb60a08301846119e5565b979650505050505050565b6000604051905081810181811067ffffffffffffffff82111715611d1957600080fd5b8060405250919050565b600067ffffffffffffffff821115611d3a57600080fd5b601f19601f8301169050602081019050919050565b6000819050602082019050919050565b600081519050919050565b600081519050919050565b600081519050919050565b6000602082019050919050565b600082825260208201905092915050565b600082825260208201905092915050565b600082825260208201905092915050565b600081905092915050565b60008115159050919050565b6000819050611de582611e7e565b919050565b6000819050611df882611e8b565b919050565b6000819050919050565b6000611e1282611dd7565b9050919050565b6000611e2482611dea565b9050919050565b82818337600083830152505050565b60005b83811015611e58578082015181840152602081019050611e3d565b83811115611e67576000848401525b50505050565b6000601f19601f8301169050919050565b60048110611e8857fe5b50565b60038110611e9557fe5b50565b611ea181611dcb565b8114611eac57600080fd5b50565b60038110611ebc57600080fd5b50565b611ec881611dfd565b8114611ed357600080fd5b5056fea365627a7a723158205e4177bbdfa62450496f17724bb80cba41492d84663d123d140ec06d9ea76bdd6c6578706572696d656e74616cf564736f6c63430005100040",
  "source": "// SPDX-License-Identifier: GPL-3.0\npragma solidity >=0.4.22 <0.7.1; \npragma experimental ABIEncoderV2;\nimport \"./Evento.sol\";\n\n\ncontract Biglietti{\n\n    address owner;\n    address eventoAddress; \n\n    \n    /*creato = senza sigillo, valido = con sigillo, annullato = evento annullato, invalidato = biglietto utilizzato*/\n     \n    enum StatoBiglietto {creato, valido, annullato, invalidato}\n    enum TipologiaBiglietto {tipologia1, tipologia2, tipologia3}\n    \n    event Validato (string cod_sigillo, string evento, string prezzo);\n\n    struct Biglietto {\n        uint id;\n        TipologiaBiglietto typeb;\n        string timestamp;\n        string prezzo;\n        string cod_sigillo;\n        StatoBiglietto state;\n    }\n\n    \n    constructor(address eventoAddress_) public {\n        eventoAddress = eventoAddress_;\n        //id_evento = evento_.id_evento;\n        owner = msg.sender;\n        length = 0;\n    }\n\n    modifier restricted() {\n        if (msg.sender == owner) _;\n    }\n\n    Biglietto[] public lista_biglietti;\n\n    uint256 length;\n\n    function storeItem(string memory timestamp, string memory prezzo, TipologiaBiglietto tipoBiglietto) public restricted { \n        if(getPostiRimanenti() > 0) {\n        lista_biglietti.push(Biglietto({\n            id: length,\n            state: StatoBiglietto.creato,\n            timestamp: timestamp,\n            prezzo: prezzo, \n            cod_sigillo: \"0\",\n            typeb: tipoBiglietto\n        }));\n        length++;\n        } \n    } //TODO: cosa fare in caso di posti insufficienti? \n    \n    function setValidoBiglietto(uint id) public restricted {\n        lista_biglietti[id].state = StatoBiglietto.valido;\n        Evento evento = Evento(eventoAddress);\n        string memory nome_evento = evento.getTitolo();\n        emit Validato(this.getSigillo(id), nome_evento, this.getPrezzo(id));\n    }\n    \n    \n    function getEventoInfo() public view returns (string memory){\n        Evento evento = Evento(eventoAddress);\n        return evento.getStatoEvento(); \n    }\n    \n    function setAnnulatoBiglietto(uint id) public restricted  {\n        Evento evento = Evento(eventoAddress);\n        if(evento.isAnnulatoEvento() == true){\n            lista_biglietti[id].state = StatoBiglietto.annullato;\n        }\n    }\n    \n    function setInvalidatoBiglietto(uint id) public restricted {\n        Evento evento = Evento(eventoAddress);\n        if(evento.isAttivoEvento() == true){\n            lista_biglietti[id].state = StatoBiglietto.invalidato;\n        }\n    }\n\n    function getGiornale() public view returns (Biglietto[] memory){\n        return lista_biglietti;\n    }\n\n    function getLength() public view returns (uint){\n        return length;\n    }\n    function getId(uint posx) public view returns (uint){\n        return  lista_biglietti[posx].id; \n    }\n    \n    function setSigillo(uint id, string memory sigillo,string memory codiceTransazione) public restricted {\n        if(statusPagamento(codiceTransazione) == true){\n            lista_biglietti[id].cod_sigillo = sigillo; \n            setValidoBiglietto(id);\n        }\n    }\n    \n    function getSigillo(uint id) public view returns (string memory) {\n        return lista_biglietti[id].cod_sigillo; \n    }\n    \n    function getTipoBiglietto(uint id) public view returns (string memory) {\n        if(lista_biglietti[id].typeb == TipologiaBiglietto.tipologia1){\n            return \"Tipologia 1\";\n        }else if(lista_biglietti[id].typeb == TipologiaBiglietto.tipologia2){\n            return \"Tipologia 2\";\n        }else{\n            return \"Tipologia 3\";\n        }\n    }\n    \n    function statusPagamento(string memory codiceTransazione) public restricted view returns (bool){\n        string memory OK = \"OK\"; \n        if (keccak256(abi.encodePacked(codiceTransazione)) == keccak256(abi.encodePacked(OK))) {\n            return true; \n        }else{\n            return false; \n        }\n    }\n    \n    function getPostiRimanenti() public view returns (uint256) {\n        Evento evento = Evento(eventoAddress);\n        uint256 totali = evento.getCapienza();\n        uint256 rimanenti = totali - Biglietti.getLength();\n        return rimanenti;\n    }\n    \n    function getPrezzo(uint id) public view returns (string memory) {\n        return lista_biglietti[id].prezzo;\n    }\n}\n",
  "sourcePath": "/home/emanuele/GitHub/SoftwareCybersecurityProject/contracts/Biglietti.sol",
  "compiler": {
    "name": "solc",
    "version": "0.5.16+commit.9c3226ce.Emscripten.clang"
  },
  "schemaVersion": "3.4.2",
  "updatedAt": "2021-07-24T07:38:29.652Z",
  "devdoc": {
    "methods": {}
  },
  "userdoc": {
    "methods": {}
  }
}