{
  "contractName": "Evento",
  "abi": [
    {
      "constant": true,
      "inputs": [],
      "name": "evento",
      "outputs": [
        {
          "name": "",
          "type": "address"
        }
      ],
      "payable": false,
      "stateMutability": "view",
      "type": "function"
    },
    {
      "inputs": [],
      "payable": false,
      "stateMutability": "nonpayable",
      "type": "constructor"
    },
    {
      "constant": false,
      "inputs": [
        {
          "name": "id_",
          "type": "uint256"
        },
        {
          "name": "titolo_",
          "type": "string"
        },
        {
          "name": "timestamp_",
          "type": "string"
        },
        {
          "name": "luogo_",
          "type": "string"
        },
        {
          "name": "data_",
          "type": "string"
        },
        {
          "name": "orario_",
          "type": "string"
        },
        {
          "name": "artista_",
          "type": "string"
        },
        {
          "name": "capienza_",
          "type": "uint256"
        }
      ],
      "name": "storeItem",
      "outputs": [],
      "payable": false,
      "stateMutability": "nonpayable",
      "type": "function"
    },
    {
      "constant": true,
      "inputs": [],
      "name": "getEvento",
      "outputs": [
        {
          "name": "",
          "type": "address"
        }
      ],
      "payable": false,
      "stateMutability": "view",
      "type": "function"
    },
    {
      "constant": true,
      "inputs": [],
      "name": "getTitolo",
      "outputs": [
        {
          "name": "",
          "type": "string"
        }
      ],
      "payable": false,
      "stateMutability": "view",
      "type": "function"
    },
    {
      "constant": true,
      "inputs": [],
      "name": "getLuogo",
      "outputs": [
        {
          "name": "",
          "type": "string"
        }
      ],
      "payable": false,
      "stateMutability": "view",
      "type": "function"
    },
    {
      "constant": true,
      "inputs": [],
      "name": "getData",
      "outputs": [
        {
          "name": "",
          "type": "string"
        }
      ],
      "payable": false,
      "stateMutability": "view",
      "type": "function"
    },
    {
      "constant": true,
      "inputs": [],
      "name": "getOrario",
      "outputs": [
        {
          "name": "",
          "type": "string"
        }
      ],
      "payable": false,
      "stateMutability": "view",
      "type": "function"
    },
    {
      "constant": true,
      "inputs": [],
      "name": "getArtista",
      "outputs": [
        {
          "name": "",
          "type": "string"
        }
      ],
      "payable": false,
      "stateMutability": "view",
      "type": "function"
    },
    {
      "constant": true,
      "inputs": [],
      "name": "isAnnulatoEvento",
      "outputs": [
        {
          "name": "",
          "type": "bool"
        }
      ],
      "payable": false,
      "stateMutability": "view",
      "type": "function"
    },
    {
      "constant": true,
      "inputs": [],
      "name": "isAttivoEvento",
      "outputs": [
        {
          "name": "",
          "type": "bool"
        }
      ],
      "payable": false,
      "stateMutability": "view",
      "type": "function"
    },
    {
      "constant": false,
      "inputs": [],
      "name": "setAnnulatoEvento",
      "outputs": [],
      "payable": false,
      "stateMutability": "nonpayable",
      "type": "function"
    },
    {
      "constant": true,
      "inputs": [],
      "name": "getStatoEvento",
      "outputs": [
        {
          "name": "",
          "type": "string"
        }
      ],
      "payable": false,
      "stateMutability": "view",
      "type": "function"
    },
    {
      "constant": false,
      "inputs": [],
      "name": "setConclusoEvento",
      "outputs": [],
      "payable": false,
      "stateMutability": "nonpayable",
      "type": "function"
    },
    {
      "constant": true,
      "inputs": [],
      "name": "getCapienza",
      "outputs": [
        {
          "name": "",
          "type": "uint256"
        }
      ],
      "payable": false,
      "stateMutability": "view",
      "type": "function"
    }
  ],
  "bytecode": "0x608060405234801561001057600080fd5b50336000806101000a81548173ffffffffffffffffffffffffffffffffffffffff021916908373ffffffffffffffffffffffffffffffffffffffff1602179055506000600a81905550610f20806100686000396000f3006080604052600436106100d0576000357c0100000000000000000000000000000000000000000000000000000000900463ffffffff168063143eb867146100d55780632148ae1b146100ec5780632cf7c761146101175780632f82ba8d146101425780633bc5de301461016b5780634705e42214610196578063524468e7146101ad5780635e05db18146101d8578063770c56c0146102035780638b386b9d1461022e5780639b910a7114610259578063a2651ffb14610284578063baaedb60146102af578063dd19f355146102da575b600080fd5b3480156100e157600080fd5b506100ea610305565b005b3480156100f857600080fd5b50610101610381565b60405161010e9190610da0565b60405180910390f35b34801561012357600080fd5b5061012c610423565b6040516101399190610d85565b60405180910390f35b34801561014e57600080fd5b5061016960048036036101649190810190610b9b565b610449565b005b34801561017757600080fd5b50610180610565565b60405161018d9190610da0565b60405180910390f35b3480156101a257600080fd5b506101ab610607565b005b3480156101b957600080fd5b506101c2610683565b6040516101cf9190610dc2565b60405180910390f35b3480156101e457600080fd5b506101ed61068d565b6040516101fa9190610da0565b60405180910390f35b34801561020f57600080fd5b5061021861072f565b6040516102259190610da0565b60405180910390f35b34801561023a57600080fd5b506102436107d1565b6040516102509190610da0565b60405180910390f35b34801561026557600080fd5b5061026e610873565b60405161027b9190610d6a565b60405180910390f35b34801561029057600080fd5b506102996108b3565b6040516102a69190610da0565b60405180910390f35b3480156102bb57600080fd5b506102c46109c7565b6040516102d19190610d4f565b60405180910390f35b3480156102e657600080fd5b506102ef610a4b565b6040516102fc9190610d6a565b60405180910390f35b6000809054906101000a900473ffffffffffffffffffffffffffffffffffffffff1673ffffffffffffffffffffffffffffffffffffffff163373ffffffffffffffffffffffffffffffffffffffff16141561037f576002600960006101000a81548160ff0219169083600281111561037957fe5b02179055505b565b606060068054600181600116156101000203166002900480601f0160208091040260200160405190810160405280929190818152602001828054600181600116156101000203166002900480156104195780601f106103ee57610100808354040283529160200191610419565b820191906000526020600020905b8154815290600101906020018083116103fc57829003601f168201915b5050505050905090565b600960019054906101000a900473ffffffffffffffffffffffffffffffffffffffff1681565b6000809054906101000a900473ffffffffffffffffffffffffffffffffffffffff1673ffffffffffffffffffffffffffffffffffffffff163373ffffffffffffffffffffffffffffffffffffffff16141561055b578760018190555085600790805190602001906104bb929190610a8c565b5086600290805190602001906104d2929190610a8c565b5084600390805190602001906104e9929190610a8c565b508360049080519060200190610500929190610a8c565b508260059080519060200190610517929190610a8c565b50816006908051906020019061052e929190610a8c565b50806008819055506000600960006101000a81548160ff0219169083600281111561055557fe5b02179055505b5050505050505050565b606060048054600181600116156101000203166002900480601f0160208091040260200160405190810160405280929190818152602001828054600181600116156101000203166002900480156105fd5780601f106105d2576101008083540402835291602001916105fd565b820191906000526020600020905b8154815290600101906020018083116105e057829003601f168201915b5050505050905090565b6000809054906101000a900473ffffffffffffffffffffffffffffffffffffffff1673ffffffffffffffffffffffffffffffffffffffff163373ffffffffffffffffffffffffffffffffffffffff161415610681576001600960006101000a81548160ff0219169083600281111561067b57fe5b02179055505b565b6000600854905090565b606060028054600181600116156101000203166002900480601f0160208091040260200160405190810160405280929190818152602001828054600181600116156101000203166002900480156107255780601f106106fa57610100808354040283529160200191610725565b820191906000526020600020905b81548152906001019060200180831161070857829003601f168201915b5050505050905090565b606060058054600181600116156101000203166002900480601f0160208091040260200160405190810160405280929190818152602001828054600181600116156101000203166002900480156107c75780601f1061079c576101008083540402835291602001916107c7565b820191906000526020600020905b8154815290600101906020018083116107aa57829003601f168201915b5050505050905090565b606060038054600181600116156101000203166002900480601f0160208091040260200160405190810160405280929190818152602001828054600181600116156101000203166002900480156108695780601f1061083e57610100808354040283529160200191610869565b820191906000526020600020905b81548152906001019060200180831161084c57829003601f168201915b5050505050905090565b600080600281111561088157fe5b600960009054906101000a900460ff16600281111561089c57fe5b14156108ab57600190506108b0565b600090505b90565b6060600060028111156108c257fe5b600960009054906101000a900460ff1660028111156108dd57fe5b1415610920576040805190810160405280600681526020017f41747469766f000000000000000000000000000000000000000000000000000081525090506109c4565b6001600281111561092d57fe5b600960009054906101000a900460ff16600281111561094857fe5b141561098b576040805190810160405280600981526020017f416e6e756c6c61746f000000000000000000000000000000000000000000000081525090506109c4565b6040805190810160405280600881526020017f436f6e636c75736f00000000000000000000000000000000000000000000000081525090505b90565b60008073ffffffffffffffffffffffffffffffffffffffff166000809054906101000a900473ffffffffffffffffffffffffffffffffffffffff1673ffffffffffffffffffffffffffffffffffffffff161415610a47576000809054906101000a900473ffffffffffffffffffffffffffffffffffffffff169050610a48565b5b90565b600060016002811115610a5a57fe5b600960009054906101000a900460ff166002811115610a7557fe5b1415610a845760019050610a89565b600090505b90565b828054600181600116156101000203166002900490600052602060002090601f016020900481019282601f10610acd57805160ff1916838001178555610afb565b82800160010185558215610afb579182015b82811115610afa578251825591602001919060010190610adf565b5b509050610b089190610b0c565b5090565b610b2e91905b80821115610b2a576000816000905550600101610b12565b5090565b90565b600082601f8301121515610b4457600080fd5b8135610b57610b5282610e0a565b610ddd565b91508082526020830160208301858383011115610b7357600080fd5b610b7e838284610e93565b50505092915050565b6000610b938235610e77565b905092915050565b600080600080600080600080610100898b031215610bb857600080fd5b6000610bc68b828c01610b87565b985050602089013567ffffffffffffffff811115610be357600080fd5b610bef8b828c01610b31565b975050604089013567ffffffffffffffff811115610c0c57600080fd5b610c188b828c01610b31565b965050606089013567ffffffffffffffff811115610c3557600080fd5b610c418b828c01610b31565b955050608089013567ffffffffffffffff811115610c5e57600080fd5b610c6a8b828c01610b31565b94505060a089013567ffffffffffffffff811115610c8757600080fd5b610c938b828c01610b31565b93505060c089013567ffffffffffffffff811115610cb057600080fd5b610cbc8b828c01610b31565b92505060e0610ccd8b828c01610b87565b9150509295985092959890939650565b610ce681610e41565b82525050565b610cf581610e61565b82525050565b610d0481610e81565b82525050565b6000610d1582610e36565b808452610d29816020860160208601610ea2565b610d3281610ed5565b602085010191505092915050565b610d4981610e6d565b82525050565b6000602082019050610d646000830184610cdd565b92915050565b6000602082019050610d7f6000830184610cec565b92915050565b6000602082019050610d9a6000830184610cfb565b92915050565b60006020820190508181036000830152610dba8184610d0a565b905092915050565b6000602082019050610dd76000830184610d40565b92915050565b6000604051905081810181811067ffffffffffffffff82111715610e0057600080fd5b8060405250919050565b600067ffffffffffffffff821115610e2157600080fd5b601f19601f8301169050602081019050919050565b600081519050919050565b600073ffffffffffffffffffffffffffffffffffffffff82169050919050565b60008115159050919050565b6000819050919050565b6000819050919050565b6000610e8c82610e41565b9050919050565b82818337600083830152505050565b60005b83811015610ec0578082015181840152602081019050610ea5565b83811115610ecf576000848401525b50505050565b6000601f19601f83011690509190505600a265627a7a72305820937357550bef5b830832ea49b6548b08d22195735ca894c41b891e6f27bbe6fc6c6578706572696d656e74616cf50037",
  "source": "// SPDX-License-Identifier: GPL-3.0\npragma solidity >=0.4.22 <0.7.1;\npragma experimental ABIEncoderV2;\n\ncontract Evento {\n    address owner;\n\n    enum StatoEvento  {attivo, annullato, concluso}\n\n    uint id_evento;\n    string titolo;\n    string luogo;\n    string data;\n    string orario;\n    string artista;\n    string timestamp;\n    uint capienza;\n    StatoEvento stateEvento;\n\n    constructor() public {\n        owner = msg.sender;\n        length = 0;\n    }\n\n    modifier restricted()  {\n        if (msg.sender == owner) _;\n        // TODO: verificare\n    }\n\n    Evento public evento;\n\n    uint256 length;\n\n    function storeItem(uint id_, string memory titolo_, string memory timestamp_, string memory luogo_, string memory data_, string memory orario_, string memory artista_, uint capienza_) public restricted {\n        id_evento = id_;\n        timestamp = timestamp_;\n        titolo = titolo_;\n        luogo = luogo_;\n        data = data_;\n        orario = orario_;\n        artista = artista_;\n        capienza = capienza_;\n        stateEvento = StatoEvento.attivo;\n    }\n\n    function getEvento() public view returns (address) {\n        if (owner == address(0)) {\n            return owner;\n        }\n    }\n\n\n    function getTitolo() public view returns (string memory){\n        return Evento.titolo;\n    }\n\n\n    function getLuogo() public view returns (string memory){\n        return Evento.luogo;\n    }\n\n    function getData() public view returns (string memory){\n        return Evento.data;\n    }\n\n\n    function getOrario() public view returns (string memory){\n        return Evento.orario;\n    }\n\n    function getArtista() public view returns (string memory){\n        return Evento.artista;\n    }\n\n    function isAnnulatoEvento() public view returns (bool) {\n        if (Evento.stateEvento == StatoEvento.annullato) {\n            return true;\n        } else {\n            return false;\n        }\n    }\n\n    function isAttivoEvento() public view returns (bool) {\n        if (Evento.stateEvento == StatoEvento.attivo) {\n            return true;\n        } else {\n            return false;\n        }\n    }\n\n    function setAnnulatoEvento() public restricted {\n        Evento.stateEvento = StatoEvento.annullato;\n    }\n\n    function getStatoEvento() external view returns (string memory){\n        if (Evento.stateEvento == StatoEvento.attivo) {\n            return \"Attivo\";\n        } else if (Evento.stateEvento == StatoEvento.annullato) {\n            return \"Annullato\";\n        } else {\n            return \"Concluso\";\n        }\n    }\n\n    function setConclusoEvento() public restricted {\n        Evento.stateEvento = StatoEvento.concluso;\n    }\n\n    function getCapienza() external view returns (uint256) {\n        return Evento.capienza;\n    }\n\n}\n \n",
  "sourcePath": "/home/andrea/WebstormProjects/SoftwareCybersecurityProject/contracts/Evento.sol",
  "compiler": {
    "name": "solc",
    "version": "0.4.26+commit.4563c3fc.Emscripten.clang"
  },
  "schemaVersion": "2.0.3",
  "updatedAt": "2021-07-31T07:56:56.490Z"
}