{
  "contractName": "Evento",
  "abi": [
    {
      "constant": true,
      "inputs": [],
      "name": "evento",
      "outputs": [
        {
          "name": "",
          "type": "address"
        }
      ],
      "payable": false,
      "stateMutability": "view",
      "type": "function"
    },
    {
      "inputs": [],
      "payable": false,
      "stateMutability": "nonpayable",
      "type": "constructor"
    },
    {
      "constant": false,
      "inputs": [
        {
          "name": "id_",
          "type": "uint256"
        },
        {
          "name": "titolo_",
          "type": "string"
        },
        {
          "name": "timestamp_",
          "type": "string"
        },
        {
          "name": "luogo_",
          "type": "string"
        },
        {
          "name": "data_",
          "type": "string"
        },
        {
          "name": "orario_",
          "type": "string"
        },
        {
          "name": "artista_",
          "type": "string"
        },
        {
          "name": "capienza_",
          "type": "uint256"
        }
      ],
      "name": "storeItem",
      "outputs": [],
      "payable": false,
      "stateMutability": "nonpayable",
      "type": "function"
    },
    {
      "constant": true,
      "inputs": [],
      "name": "getEvento",
      "outputs": [
        {
          "name": "",
          "type": "address"
        }
      ],
      "payable": false,
      "stateMutability": "view",
      "type": "function"
    },
    {
      "constant": true,
      "inputs": [],
      "name": "getTitolo",
      "outputs": [
        {
          "name": "",
          "type": "string"
        }
      ],
      "payable": false,
      "stateMutability": "view",
      "type": "function"
    },
    {
      "constant": true,
      "inputs": [],
      "name": "getLuogo",
      "outputs": [
        {
          "name": "",
          "type": "string"
        }
      ],
      "payable": false,
      "stateMutability": "view",
      "type": "function"
    },
    {
      "constant": true,
      "inputs": [],
      "name": "getData",
      "outputs": [
        {
          "name": "",
          "type": "string"
        }
      ],
      "payable": false,
      "stateMutability": "view",
      "type": "function"
    },
    {
      "constant": true,
      "inputs": [],
      "name": "getOrario",
      "outputs": [
        {
          "name": "",
          "type": "string"
        }
      ],
      "payable": false,
      "stateMutability": "view",
      "type": "function"
    },
    {
      "constant": true,
      "inputs": [],
      "name": "getArtista",
      "outputs": [
        {
          "name": "",
          "type": "string"
        }
      ],
      "payable": false,
      "stateMutability": "view",
      "type": "function"
    },
    {
      "constant": true,
      "inputs": [],
      "name": "getTimestamp",
      "outputs": [
        {
          "name": "",
          "type": "string"
        }
      ],
      "payable": false,
      "stateMutability": "view",
      "type": "function"
    },
    {
      "constant": true,
      "inputs": [],
      "name": "isAnnulatoEvento",
      "outputs": [
        {
          "name": "",
          "type": "bool"
        }
      ],
      "payable": false,
      "stateMutability": "view",
      "type": "function"
    },
    {
      "constant": true,
      "inputs": [],
      "name": "isAttivoEvento",
      "outputs": [
        {
          "name": "",
          "type": "bool"
        }
      ],
      "payable": false,
      "stateMutability": "view",
      "type": "function"
    },
    {
      "constant": false,
      "inputs": [],
      "name": "setAnnulatoEvento",
      "outputs": [],
      "payable": false,
      "stateMutability": "nonpayable",
      "type": "function"
    },
    {
      "constant": true,
      "inputs": [],
      "name": "getStatoEvento",
      "outputs": [
        {
          "name": "",
          "type": "string"
        }
      ],
      "payable": false,
      "stateMutability": "view",
      "type": "function"
    },
    {
      "constant": false,
      "inputs": [],
      "name": "setConclusoEvento",
      "outputs": [],
      "payable": false,
      "stateMutability": "nonpayable",
      "type": "function"
    },
    {
      "constant": true,
      "inputs": [],
      "name": "getCapienza",
      "outputs": [
        {
          "name": "",
          "type": "uint256"
        }
      ],
      "payable": false,
      "stateMutability": "view",
      "type": "function"
    }
  ],
  "bytecode": "0x608060405234801561001057600080fd5b50336000806101000a81548173ffffffffffffffffffffffffffffffffffffffff021916908373ffffffffffffffffffffffffffffffffffffffff1602179055506000600a81905550610ff8806100686000396000f3006080604052600436106100db576000357c0100000000000000000000000000000000000000000000000000000000900463ffffffff168063143eb867146100e0578063188ec356146100f75780632148ae1b146101225780632cf7c7611461014d5780632f82ba8d146101785780633bc5de30146101a15780634705e422146101cc578063524468e7146101e35780635e05db181461020e578063770c56c0146102395780638b386b9d146102645780639b910a711461028f578063a2651ffb146102ba578063baaedb60146102e5578063dd19f35514610310575b600080fd5b3480156100ec57600080fd5b506100f561033b565b005b34801561010357600080fd5b5061010c6103b7565b6040516101199190610e78565b60405180910390f35b34801561012e57600080fd5b50610137610459565b6040516101449190610e78565b60405180910390f35b34801561015957600080fd5b506101626104fb565b60405161016f9190610e5d565b60405180910390f35b34801561018457600080fd5b5061019f600480360361019a9190810190610c73565b610521565b005b3480156101ad57600080fd5b506101b661063d565b6040516101c39190610e78565b60405180910390f35b3480156101d857600080fd5b506101e16106df565b005b3480156101ef57600080fd5b506101f861075b565b6040516102059190610e9a565b60405180910390f35b34801561021a57600080fd5b50610223610765565b6040516102309190610e78565b60405180910390f35b34801561024557600080fd5b5061024e610807565b60405161025b9190610e78565b60405180910390f35b34801561027057600080fd5b506102796108a9565b6040516102869190610e78565b60405180910390f35b34801561029b57600080fd5b506102a461094b565b6040516102b19190610e42565b60405180910390f35b3480156102c657600080fd5b506102cf61098b565b6040516102dc9190610e78565b60405180910390f35b3480156102f157600080fd5b506102fa610a9f565b6040516103079190610e27565b60405180910390f35b34801561031c57600080fd5b50610325610b23565b6040516103329190610e42565b60405180910390f35b6000809054906101000a900473ffffffffffffffffffffffffffffffffffffffff1673ffffffffffffffffffffffffffffffffffffffff163373ffffffffffffffffffffffffffffffffffffffff1614156103b5576002600960006101000a81548160ff021916908360028111156103af57fe5b02179055505b565b606060078054600181600116156101000203166002900480601f01602080910402602001604051908101604052809291908181526020018280546001816001161561010002031660029004801561044f5780601f106104245761010080835404028352916020019161044f565b820191906000526020600020905b81548152906001019060200180831161043257829003601f168201915b5050505050905090565b606060068054600181600116156101000203166002900480601f0160208091040260200160405190810160405280929190818152602001828054600181600116156101000203166002900480156104f15780601f106104c6576101008083540402835291602001916104f1565b820191906000526020600020905b8154815290600101906020018083116104d457829003601f168201915b5050505050905090565b600960019054906101000a900473ffffffffffffffffffffffffffffffffffffffff1681565b6000809054906101000a900473ffffffffffffffffffffffffffffffffffffffff1673ffffffffffffffffffffffffffffffffffffffff163373ffffffffffffffffffffffffffffffffffffffff16141561063357876001819055508560079080519060200190610593929190610b64565b5086600290805190602001906105aa929190610b64565b5084600390805190602001906105c1929190610b64565b5083600490805190602001906105d8929190610b64565b5082600590805190602001906105ef929190610b64565b508160069080519060200190610606929190610b64565b50806008819055506000600960006101000a81548160ff0219169083600281111561062d57fe5b02179055505b5050505050505050565b606060048054600181600116156101000203166002900480601f0160208091040260200160405190810160405280929190818152602001828054600181600116156101000203166002900480156106d55780601f106106aa576101008083540402835291602001916106d5565b820191906000526020600020905b8154815290600101906020018083116106b857829003601f168201915b5050505050905090565b6000809054906101000a900473ffffffffffffffffffffffffffffffffffffffff1673ffffffffffffffffffffffffffffffffffffffff163373ffffffffffffffffffffffffffffffffffffffff161415610759576001600960006101000a81548160ff0219169083600281111561075357fe5b02179055505b565b6000600854905090565b606060028054600181600116156101000203166002900480601f0160208091040260200160405190810160405280929190818152602001828054600181600116156101000203166002900480156107fd5780601f106107d2576101008083540402835291602001916107fd565b820191906000526020600020905b8154815290600101906020018083116107e057829003601f168201915b5050505050905090565b606060058054600181600116156101000203166002900480601f01602080910402602001604051908101604052809291908181526020018280546001816001161561010002031660029004801561089f5780601f106108745761010080835404028352916020019161089f565b820191906000526020600020905b81548152906001019060200180831161088257829003601f168201915b5050505050905090565b606060038054600181600116156101000203166002900480601f0160208091040260200160405190810160405280929190818152602001828054600181600116156101000203166002900480156109415780601f1061091657610100808354040283529160200191610941565b820191906000526020600020905b81548152906001019060200180831161092457829003601f168201915b5050505050905090565b600080600281111561095957fe5b600960009054906101000a900460ff16600281111561097457fe5b14156109835760019050610988565b600090505b90565b60606000600281111561099a57fe5b600960009054906101000a900460ff1660028111156109b557fe5b14156109f8576040805190810160405280600681526020017f41747469766f00000000000000000000000000000000000000000000000000008152509050610a9c565b60016002811115610a0557fe5b600960009054906101000a900460ff166002811115610a2057fe5b1415610a63576040805190810160405280600981526020017f416e6e756c6c61746f00000000000000000000000000000000000000000000008152509050610a9c565b6040805190810160405280600881526020017f436f6e636c75736f00000000000000000000000000000000000000000000000081525090505b90565b60008073ffffffffffffffffffffffffffffffffffffffff166000809054906101000a900473ffffffffffffffffffffffffffffffffffffffff1673ffffffffffffffffffffffffffffffffffffffff161415610b1f576000809054906101000a900473ffffffffffffffffffffffffffffffffffffffff169050610b20565b5b90565b600060016002811115610b3257fe5b600960009054906101000a900460ff166002811115610b4d57fe5b1415610b5c5760019050610b61565b600090505b90565b828054600181600116156101000203166002900490600052602060002090601f016020900481019282601f10610ba557805160ff1916838001178555610bd3565b82800160010185558215610bd3579182015b82811115610bd2578251825591602001919060010190610bb7565b5b509050610be09190610be4565b5090565b610c0691905b80821115610c02576000816000905550600101610bea565b5090565b90565b600082601f8301121515610c1c57600080fd5b8135610c2f610c2a82610ee2565b610eb5565b91508082526020830160208301858383011115610c4b57600080fd5b610c56838284610f6b565b50505092915050565b6000610c6b8235610f4f565b905092915050565b600080600080600080600080610100898b031215610c9057600080fd5b6000610c9e8b828c01610c5f565b985050602089013567ffffffffffffffff811115610cbb57600080fd5b610cc78b828c01610c09565b975050604089013567ffffffffffffffff811115610ce457600080fd5b610cf08b828c01610c09565b965050606089013567ffffffffffffffff811115610d0d57600080fd5b610d198b828c01610c09565b955050608089013567ffffffffffffffff811115610d3657600080fd5b610d428b828c01610c09565b94505060a089013567ffffffffffffffff811115610d5f57600080fd5b610d6b8b828c01610c09565b93505060c089013567ffffffffffffffff811115610d8857600080fd5b610d948b828c01610c09565b92505060e0610da58b828c01610c5f565b9150509295985092959890939650565b610dbe81610f19565b82525050565b610dcd81610f39565b82525050565b610ddc81610f59565b82525050565b6000610ded82610f0e565b808452610e01816020860160208601610f7a565b610e0a81610fad565b602085010191505092915050565b610e2181610f45565b82525050565b6000602082019050610e3c6000830184610db5565b92915050565b6000602082019050610e576000830184610dc4565b92915050565b6000602082019050610e726000830184610dd3565b92915050565b60006020820190508181036000830152610e928184610de2565b905092915050565b6000602082019050610eaf6000830184610e18565b92915050565b6000604051905081810181811067ffffffffffffffff82111715610ed857600080fd5b8060405250919050565b600067ffffffffffffffff821115610ef957600080fd5b601f19601f8301169050602081019050919050565b600081519050919050565b600073ffffffffffffffffffffffffffffffffffffffff82169050919050565b60008115159050919050565b6000819050919050565b6000819050919050565b6000610f6482610f19565b9050919050565b82818337600083830152505050565b60005b83811015610f98578082015181840152602081019050610f7d565b83811115610fa7576000848401525b50505050565b6000601f19601f83011690509190505600a265627a7a723058205015d6bcee7cb86c6e25e9706acd11e780bb119957d8c6dd7f0a2311df6d3f7e6c6578706572696d656e74616cf50037",
  "source": "// SPDX-License-Identifier: GPL-3.0\npragma solidity >=0.4.22 <0.7.1;\npragma experimental ABIEncoderV2;\n\ncontract Evento {\n    address owner;\n\n    enum StatoEvento  {attivo, annullato, concluso}\n\n    uint id_evento;\n    string titolo;\n    string luogo;\n    string data;\n    string orario;\n    string artista;\n    string timestamp;\n    uint capienza;\n    StatoEvento stateEvento;\n\n    constructor() public {\n        owner = msg.sender;\n        length = 0;\n    }\n\n    modifier restricted()  {\n        if (msg.sender == owner) _;\n        // TODO: verificare\n    }\n\n    Evento public evento;\n\n    uint256 length;\n\n    function storeItem(uint id_, string memory titolo_, string memory timestamp_, string memory luogo_, string memory data_, string memory orario_, string memory artista_, uint capienza_) public restricted {\n        id_evento = id_;\n        timestamp = timestamp_;\n        titolo = titolo_;\n        luogo = luogo_;\n        data = data_;\n        orario = orario_;\n        artista = artista_;\n        capienza = capienza_;\n        stateEvento = StatoEvento.attivo;\n    }\n\n    function getEvento() public view returns (address) {\n        if (owner == address(0)) {\n            return owner;\n        }\n    }\n\n\n    function getTitolo() public view returns (string memory){\n        return Evento.titolo;\n    }\n\n\n    function getLuogo() public view returns (string memory){\n        return Evento.luogo;\n    }\n\n    function getData() public view returns (string memory){\n        return Evento.data;\n    }\n\n\n    function getOrario() public view returns (string memory){\n        return Evento.orario;\n    }\n\n    function getArtista() public view returns (string memory){\n        return Evento.artista;\n    }\n\n    function getTimestamp() public view returns (string memory){\n        return Evento.timestamp;\n    }\n\n    function isAnnulatoEvento() public view returns (bool) {\n        if (Evento.stateEvento == StatoEvento.annullato) {\n            return true;\n        } else {\n            return false;\n        }\n    }\n\n    function isAttivoEvento() public view returns (bool) {\n        if (Evento.stateEvento == StatoEvento.attivo) {\n            return true;\n        } else {\n            return false;\n        }\n    }\n\n    function setAnnulatoEvento() public restricted {\n        Evento.stateEvento = StatoEvento.annullato;\n    }\n\n    function getStatoEvento() external view returns (string memory){\n        if (Evento.stateEvento == StatoEvento.attivo) {\n            return \"Attivo\";\n        } else if (Evento.stateEvento == StatoEvento.annullato) {\n            return \"Annullato\";\n        } else {\n            return \"Concluso\";\n        }\n    }\n\n    function setConclusoEvento() public restricted {\n        Evento.stateEvento = StatoEvento.concluso;\n    }\n\n    function getCapienza() external view returns (uint256) {\n        return Evento.capienza;\n    }\n\n}\n \n",
  "sourcePath": "/home/emanuele/GitHub/SoftwareCybersecurityProject/contracts/Evento.sol",
  "compiler": {
    "name": "solc",
    "version": "0.4.26+commit.4563c3fc.Emscripten.clang"
  },
  "schemaVersion": "2.0.3",
  "updatedAt": "2021-08-02T05:53:30.428Z"
}