{
  "contractName": "Evento",
  "abi": [
    {
      "constant": true,
      "inputs": [],
      "name": "evento",
      "outputs": [
        {
          "name": "",
          "type": "address"
        }
      ],
      "payable": false,
      "stateMutability": "view",
      "type": "function"
    },
    {
      "inputs": [],
      "payable": false,
      "stateMutability": "nonpayable",
      "type": "constructor"
    },
    {
      "constant": false,
      "inputs": [
        {
          "name": "id_",
          "type": "uint256"
        },
        {
          "name": "titolo_",
          "type": "string"
        },
        {
          "name": "timestamp_",
          "type": "string"
        },
        {
          "name": "luogo_",
          "type": "string"
        },
        {
          "name": "data_",
          "type": "string"
        },
        {
          "name": "orario_",
          "type": "string"
        },
        {
          "name": "artista_",
          "type": "string"
        },
        {
          "name": "capienza_",
          "type": "uint256"
        }
      ],
      "name": "storeItem",
      "outputs": [],
      "payable": false,
      "stateMutability": "nonpayable",
      "type": "function"
    },
    {
      "constant": true,
      "inputs": [],
      "name": "getEvento",
      "outputs": [
        {
          "name": "",
          "type": "address"
        }
      ],
      "payable": false,
      "stateMutability": "view",
      "type": "function"
    },
    {
      "constant": true,
      "inputs": [],
      "name": "getTitolo",
      "outputs": [
        {
          "name": "",
          "type": "string"
        }
      ],
      "payable": false,
      "stateMutability": "view",
      "type": "function"
    },
    {
      "constant": true,
      "inputs": [],
      "name": "getLuogo",
      "outputs": [
        {
          "name": "",
          "type": "string"
        }
      ],
      "payable": false,
      "stateMutability": "view",
      "type": "function"
    },
    {
      "constant": true,
      "inputs": [],
      "name": "isAnnulatoEvento",
      "outputs": [
        {
          "name": "",
          "type": "bool"
        }
      ],
      "payable": false,
      "stateMutability": "view",
      "type": "function"
    },
    {
      "constant": true,
      "inputs": [],
      "name": "isAttivoEvento",
      "outputs": [
        {
          "name": "",
          "type": "bool"
        }
      ],
      "payable": false,
      "stateMutability": "view",
      "type": "function"
    },
    {
      "constant": false,
      "inputs": [],
      "name": "setAnnulatoEvento",
      "outputs": [],
      "payable": false,
      "stateMutability": "nonpayable",
      "type": "function"
    },
    {
      "constant": true,
      "inputs": [],
      "name": "getStatoEvento",
      "outputs": [
        {
          "name": "",
          "type": "string"
        }
      ],
      "payable": false,
      "stateMutability": "view",
      "type": "function"
    },
    {
      "constant": false,
      "inputs": [],
      "name": "setConclusoEvento",
      "outputs": [],
      "payable": false,
      "stateMutability": "nonpayable",
      "type": "function"
    },
    {
      "constant": true,
      "inputs": [],
      "name": "getCapienza",
      "outputs": [
        {
          "name": "",
          "type": "uint256"
        }
      ],
      "payable": false,
      "stateMutability": "view",
      "type": "function"
    }
  ],
  "bytecode": "0x608060405234801561001057600080fd5b50336000806101000a81548173ffffffffffffffffffffffffffffffffffffffff021916908373ffffffffffffffffffffffffffffffffffffffff1602179055506000600a81905550610c98806100686000396000f3006080604052600436106100af576000357c0100000000000000000000000000000000000000000000000000000000900463ffffffff168063143eb867146100b45780632cf7c761146100cb5780632f82ba8d146100f65780634705e4221461011f578063524468e7146101365780635e05db18146101615780638b386b9d1461018c5780639b910a71146101b7578063a2651ffb146101e2578063baaedb601461020d578063dd19f35514610238575b600080fd5b3480156100c057600080fd5b506100c9610263565b005b3480156100d757600080fd5b506100e06102df565b6040516100ed9190610afd565b60405180910390f35b34801561010257600080fd5b5061011d60048036036101189190810190610913565b610305565b005b34801561012b57600080fd5b50610134610421565b005b34801561014257600080fd5b5061014b61049d565b6040516101589190610b3a565b60405180910390f35b34801561016d57600080fd5b506101766104a7565b6040516101839190610b18565b60405180910390f35b34801561019857600080fd5b506101a1610549565b6040516101ae9190610b18565b60405180910390f35b3480156101c357600080fd5b506101cc6105eb565b6040516101d99190610ae2565b60405180910390f35b3480156101ee57600080fd5b506101f761062b565b6040516102049190610b18565b60405180910390f35b34801561021957600080fd5b5061022261073f565b60405161022f9190610ac7565b60405180910390f35b34801561024457600080fd5b5061024d6107c3565b60405161025a9190610ae2565b60405180910390f35b6000809054906101000a900473ffffffffffffffffffffffffffffffffffffffff1673ffffffffffffffffffffffffffffffffffffffff163373ffffffffffffffffffffffffffffffffffffffff1614156102dd576002600960006101000a81548160ff021916908360028111156102d757fe5b02179055505b565b600960019054906101000a900473ffffffffffffffffffffffffffffffffffffffff1681565b6000809054906101000a900473ffffffffffffffffffffffffffffffffffffffff1673ffffffffffffffffffffffffffffffffffffffff163373ffffffffffffffffffffffffffffffffffffffff16141561041757876001819055508560079080519060200190610377929190610804565b50866002908051906020019061038e929190610804565b5084600390805190602001906103a5929190610804565b5083600490805190602001906103bc929190610804565b5082600590805190602001906103d3929190610804565b5081600690805190602001906103ea929190610804565b50806008819055506000600960006101000a81548160ff0219169083600281111561041157fe5b02179055505b5050505050505050565b6000809054906101000a900473ffffffffffffffffffffffffffffffffffffffff1673ffffffffffffffffffffffffffffffffffffffff163373ffffffffffffffffffffffffffffffffffffffff16141561049b576001600960006101000a81548160ff0219169083600281111561049557fe5b02179055505b565b6000600854905090565b606060028054600181600116156101000203166002900480601f01602080910402602001604051908101604052809291908181526020018280546001816001161561010002031660029004801561053f5780601f106105145761010080835404028352916020019161053f565b820191906000526020600020905b81548152906001019060200180831161052257829003601f168201915b5050505050905090565b606060038054600181600116156101000203166002900480601f0160208091040260200160405190810160405280929190818152602001828054600181600116156101000203166002900480156105e15780601f106105b6576101008083540402835291602001916105e1565b820191906000526020600020905b8154815290600101906020018083116105c457829003601f168201915b5050505050905090565b60008060028111156105f957fe5b600960009054906101000a900460ff16600281111561061457fe5b14156106235760019050610628565b600090505b90565b60606000600281111561063a57fe5b600960009054906101000a900460ff16600281111561065557fe5b1415610698576040805190810160405280600681526020017f41747469766f0000000000000000000000000000000000000000000000000000815250905061073c565b600160028111156106a557fe5b600960009054906101000a900460ff1660028111156106c057fe5b1415610703576040805190810160405280600981526020017f416e6e756c6c61746f0000000000000000000000000000000000000000000000815250905061073c565b6040805190810160405280600881526020017f436f6e636c75736f00000000000000000000000000000000000000000000000081525090505b90565b60008073ffffffffffffffffffffffffffffffffffffffff166000809054906101000a900473ffffffffffffffffffffffffffffffffffffffff1673ffffffffffffffffffffffffffffffffffffffff1614156107bf576000809054906101000a900473ffffffffffffffffffffffffffffffffffffffff1690506107c0565b5b90565b6000600160028111156107d257fe5b600960009054906101000a900460ff1660028111156107ed57fe5b14156107fc5760019050610801565b600090505b90565b828054600181600116156101000203166002900490600052602060002090601f016020900481019282601f1061084557805160ff1916838001178555610873565b82800160010185558215610873579182015b82811115610872578251825591602001919060010190610857565b5b5090506108809190610884565b5090565b6108a691905b808211156108a257600081600090555060010161088a565b5090565b90565b600082601f83011215156108bc57600080fd5b81356108cf6108ca82610b82565b610b55565b915080825260208301602083018583830111156108eb57600080fd5b6108f6838284610c0b565b50505092915050565b600061090b8235610bef565b905092915050565b600080600080600080600080610100898b03121561093057600080fd5b600061093e8b828c016108ff565b985050602089013567ffffffffffffffff81111561095b57600080fd5b6109678b828c016108a9565b975050604089013567ffffffffffffffff81111561098457600080fd5b6109908b828c016108a9565b965050606089013567ffffffffffffffff8111156109ad57600080fd5b6109b98b828c016108a9565b955050608089013567ffffffffffffffff8111156109d657600080fd5b6109e28b828c016108a9565b94505060a089013567ffffffffffffffff8111156109ff57600080fd5b610a0b8b828c016108a9565b93505060c089013567ffffffffffffffff811115610a2857600080fd5b610a348b828c016108a9565b92505060e0610a458b828c016108ff565b9150509295985092959890939650565b610a5e81610bb9565b82525050565b610a6d81610bd9565b82525050565b610a7c81610bf9565b82525050565b6000610a8d82610bae565b808452610aa1816020860160208601610c1a565b610aaa81610c4d565b602085010191505092915050565b610ac181610be5565b82525050565b6000602082019050610adc6000830184610a55565b92915050565b6000602082019050610af76000830184610a64565b92915050565b6000602082019050610b126000830184610a73565b92915050565b60006020820190508181036000830152610b328184610a82565b905092915050565b6000602082019050610b4f6000830184610ab8565b92915050565b6000604051905081810181811067ffffffffffffffff82111715610b7857600080fd5b8060405250919050565b600067ffffffffffffffff821115610b9957600080fd5b601f19601f8301169050602081019050919050565b600081519050919050565b600073ffffffffffffffffffffffffffffffffffffffff82169050919050565b60008115159050919050565b6000819050919050565b6000819050919050565b6000610c0482610bb9565b9050919050565b82818337600083830152505050565b60005b83811015610c38578082015181840152602081019050610c1d565b83811115610c47576000848401525b50505050565b6000601f19601f83011690509190505600a265627a7a72305820e48e722464915ae4f2d9df7accd8038e786f4a0c25b52126a5245b90a9c9a0476c6578706572696d656e74616cf50037",
  "source": "// SPDX-License-Identifier: GPL-3.0\npragma solidity >=0.4.22 <0.7.1;\npragma experimental ABIEncoderV2;\n\ncontract Evento {\n    address owner;\n\n    enum StatoEvento  {attivo, annullato, concluso}\n\n    uint id_evento;\n    string titolo;\n    string luogo;\n    string data;\n    string orario;\n    string artista;\n    string timestamp;\n    uint capienza;\n    StatoEvento stateEvento;\n\n    constructor() public {\n        owner = msg.sender;\n        length = 0;\n    }\n\n    modifier restricted()  {\n        if (msg.sender == owner) _;\n        // TODO: verificare\n    }\n\n    Evento public evento;\n\n    uint256 length;\n\n    function storeItem(uint id_, string memory titolo_, string memory timestamp_, string memory luogo_, string memory data_, string memory orario_, string memory artista_, uint capienza_) public restricted {\n        id_evento = id_;\n        timestamp = timestamp_;\n        titolo = titolo_;\n        luogo = luogo_;\n        data = data_;\n        orario = orario_;\n        artista = artista_;\n        capienza = capienza_;\n        stateEvento = StatoEvento.attivo;\n    }\n\n    function getEvento() public view returns (address) {\n        if (owner == address(0)) {\n            return owner;\n        }\n    }\n\n\n    function getTitolo() public view returns (string memory){\n        return Evento.titolo;\n    }\n\n\n    function getLuogo() public view returns (string memory){\n        return Evento.luogo;\n    }\n\n    function isAnnulatoEvento() public view returns (bool) {\n        if (Evento.stateEvento == StatoEvento.annullato) {\n            return true;\n        } else {\n            return false;\n        }\n    }\n\n    function isAttivoEvento() public view returns (bool) {\n        if (Evento.stateEvento == StatoEvento.attivo) {\n            return true;\n        } else {\n            return false;\n        }\n    }\n\n    function setAnnulatoEvento() public restricted {\n        Evento.stateEvento = StatoEvento.annullato;\n    }\n\n    function getStatoEvento() external view returns (string memory){\n        if (Evento.stateEvento == StatoEvento.attivo) {\n            return \"Attivo\";\n        } else if (Evento.stateEvento == StatoEvento.annullato) {\n            return \"Annullato\";\n        } else {\n            return \"Concluso\";\n        }\n    }\n\n    function setConclusoEvento() public restricted {\n        Evento.stateEvento = StatoEvento.concluso;\n    }\n\n    function getCapienza() external view returns (uint256) {\n        return Evento.capienza;\n    }\n\n}\n \n",
  "sourcePath": "/Users/denisbernovschi/SoftwareCybersecurityProject/contracts/Evento.sol",
  "compiler": {
    "name": "solc",
    "version": "0.4.26+commit.4563c3fc.Emscripten.clang"
  },
  "schemaVersion": "2.0.3",
  "updatedAt": "2021-07-26T09:38:19.966Z"
}