{
  "contractName": "Evento",
  "abi": [
    {
      "inputs": [],
      "payable": false,
      "stateMutability": "nonpayable",
      "type": "constructor"
    },
    {
      "constant": true,
      "inputs": [],
      "name": "evento",
      "outputs": [
        {
          "internalType": "contract Evento",
          "name": "",
          "type": "address"
        }
      ],
      "payable": false,
      "stateMutability": "view",
      "type": "function"
    },
    {
      "constant": false,
      "inputs": [
        {
          "internalType": "uint256",
          "name": "id_",
          "type": "uint256"
        },
        {
          "internalType": "string",
          "name": "titolo_",
          "type": "string"
        },
        {
          "internalType": "string",
          "name": "timestamp_",
          "type": "string"
        },
        {
          "internalType": "string",
          "name": "luogo_",
          "type": "string"
        },
        {
          "internalType": "string",
          "name": "data_",
          "type": "string"
        },
        {
          "internalType": "string",
          "name": "orario_",
          "type": "string"
        },
        {
          "internalType": "string",
          "name": "artista_",
          "type": "string"
        },
        {
          "internalType": "uint256",
          "name": "capienza_",
          "type": "uint256"
        }
      ],
      "name": "storeItem",
      "outputs": [],
      "payable": false,
      "stateMutability": "nonpayable",
      "type": "function"
    },
    {
      "constant": true,
      "inputs": [],
      "name": "getEvento",
      "outputs": [
        {
          "internalType": "address",
          "name": "",
          "type": "address"
        }
      ],
      "payable": false,
      "stateMutability": "view",
      "type": "function"
    },
    {
      "constant": true,
      "inputs": [],
      "name": "getTitolo",
      "outputs": [
        {
          "internalType": "string",
          "name": "",
          "type": "string"
        }
      ],
      "payable": false,
      "stateMutability": "view",
      "type": "function"
    },
    {
      "constant": true,
      "inputs": [],
      "name": "getLuogo",
      "outputs": [
        {
          "internalType": "string",
          "name": "",
          "type": "string"
        }
      ],
      "payable": false,
      "stateMutability": "view",
      "type": "function"
    },
    {
      "constant": true,
      "inputs": [],
      "name": "isAnnulatoEvento",
      "outputs": [
        {
          "internalType": "bool",
          "name": "",
          "type": "bool"
        }
      ],
      "payable": false,
      "stateMutability": "view",
      "type": "function"
    },
    {
      "constant": true,
      "inputs": [],
      "name": "isAttivoEvento",
      "outputs": [
        {
          "internalType": "bool",
          "name": "",
          "type": "bool"
        }
      ],
      "payable": false,
      "stateMutability": "view",
      "type": "function"
    },
    {
      "constant": false,
      "inputs": [],
      "name": "setAnnulatoEvento",
      "outputs": [],
      "payable": false,
      "stateMutability": "nonpayable",
      "type": "function"
    },
    {
      "constant": true,
      "inputs": [],
      "name": "getStatoEvento",
      "outputs": [
        {
          "internalType": "string",
          "name": "",
          "type": "string"
        }
      ],
      "payable": false,
      "stateMutability": "view",
      "type": "function"
    },
    {
      "constant": false,
      "inputs": [],
      "name": "setConclusoEvento",
      "outputs": [],
      "payable": false,
      "stateMutability": "nonpayable",
      "type": "function"
    },
    {
      "constant": true,
      "inputs": [],
      "name": "getCapienza",
      "outputs": [
        {
          "internalType": "uint256",
          "name": "",
          "type": "uint256"
        }
      ],
      "payable": false,
      "stateMutability": "view",
      "type": "function"
    }
  ],
  "bytecode": "0x608060405234801561001057600080fd5b50336000806101000a81548173ffffffffffffffffffffffffffffffffffffffff021916908373ffffffffffffffffffffffffffffffffffffffff1602179055506000600a81905550610c50806100686000396000f3fe608060405234801561001057600080fd5b50600436106100a95760003560e01c80635e05db18116100715780635e05db181461011a5780638b386b9d146101385780639b910a7114610156578063a2651ffb14610174578063baaedb6014610192578063dd19f355146101b0576100a9565b8063143eb867146100ae5780632cf7c761146100b85780632f82ba8d146100d65780634705e422146100f2578063524468e7146100fc575b600080fd5b6100b66101ce565b005b6100c061024a565b6040516100cd9190610a6a565b60405180910390f35b6100f060048036036100eb919081019061087d565b610270565b005b6100fa61038c565b005b610104610408565b6040516101119190610aa7565b60405180910390f35b610122610412565b60405161012f9190610a85565b60405180910390f35b6101406104b4565b60405161014d9190610a85565b60405180910390f35b61015e610556565b60405161016b9190610a4f565b60405180910390f35b61017c610596565b6040516101899190610a85565b60405180910390f35b61019a6106aa565b6040516101a79190610a34565b60405180910390f35b6101b861072e565b6040516101c59190610a4f565b60405180910390f35b6000809054906101000a900473ffffffffffffffffffffffffffffffffffffffff1673ffffffffffffffffffffffffffffffffffffffff163373ffffffffffffffffffffffffffffffffffffffff161415610248576002600960006101000a81548160ff0219169083600281111561024257fe5b02179055505b565b600960019054906101000a900473ffffffffffffffffffffffffffffffffffffffff1681565b6000809054906101000a900473ffffffffffffffffffffffffffffffffffffffff1673ffffffffffffffffffffffffffffffffffffffff163373ffffffffffffffffffffffffffffffffffffffff161415610382578760018190555085600790805190602001906102e292919061076f565b5086600290805190602001906102f992919061076f565b50846003908051906020019061031092919061076f565b50836004908051906020019061032792919061076f565b50826005908051906020019061033e92919061076f565b50816006908051906020019061035592919061076f565b50806008819055506000600960006101000a81548160ff0219169083600281111561037c57fe5b02179055505b5050505050505050565b6000809054906101000a900473ffffffffffffffffffffffffffffffffffffffff1673ffffffffffffffffffffffffffffffffffffffff163373ffffffffffffffffffffffffffffffffffffffff161415610406576001600960006101000a81548160ff0219169083600281111561040057fe5b02179055505b565b6000600854905090565b606060028054600181600116156101000203166002900480601f0160208091040260200160405190810160405280929190818152602001828054600181600116156101000203166002900480156104aa5780601f1061047f576101008083540402835291602001916104aa565b820191906000526020600020905b81548152906001019060200180831161048d57829003601f168201915b5050505050905090565b606060038054600181600116156101000203166002900480601f01602080910402602001604051908101604052809291908181526020018280546001816001161561010002031660029004801561054c5780601f106105215761010080835404028352916020019161054c565b820191906000526020600020905b81548152906001019060200180831161052f57829003601f168201915b5050505050905090565b600080600281111561056457fe5b600960009054906101000a900460ff16600281111561057f57fe5b141561058e5760019050610593565b600090505b90565b6060600060028111156105a557fe5b600960009054906101000a900460ff1660028111156105c057fe5b1415610603576040518060400160405280600681526020017f41747469766f000000000000000000000000000000000000000000000000000081525090506106a7565b6001600281111561061057fe5b600960009054906101000a900460ff16600281111561062b57fe5b141561066e576040518060400160405280600981526020017f416e6e756c6c61746f000000000000000000000000000000000000000000000081525090506106a7565b6040518060400160405280600881526020017f436f6e636c75736f00000000000000000000000000000000000000000000000081525090505b90565b60008073ffffffffffffffffffffffffffffffffffffffff166000809054906101000a900473ffffffffffffffffffffffffffffffffffffffff1673ffffffffffffffffffffffffffffffffffffffff16141561072a576000809054906101000a900473ffffffffffffffffffffffffffffffffffffffff16905061072b565b5b90565b60006001600281111561073d57fe5b600960009054906101000a900460ff16600281111561075857fe5b1415610767576001905061076c565b600090505b90565b828054600181600116156101000203166002900490600052602060002090601f016020900481019282601f106107b057805160ff19168380011785556107de565b828001600101855582156107de579182015b828111156107dd5782518255916020019190600101906107c2565b5b5090506107eb91906107ef565b5090565b61081191905b8082111561080d5760008160009055506001016107f5565b5090565b90565b600082601f83011261082557600080fd5b813561083861083382610aef565b610ac2565b9150808252602083016020830185838301111561085457600080fd5b61085f838284610ba3565b50505092915050565b60008135905061087781610bf6565b92915050565b600080600080600080600080610100898b03121561089a57600080fd5b60006108a88b828c01610868565b985050602089013567ffffffffffffffff8111156108c557600080fd5b6108d18b828c01610814565b975050604089013567ffffffffffffffff8111156108ee57600080fd5b6108fa8b828c01610814565b965050606089013567ffffffffffffffff81111561091757600080fd5b6109238b828c01610814565b955050608089013567ffffffffffffffff81111561094057600080fd5b61094c8b828c01610814565b94505060a089013567ffffffffffffffff81111561096957600080fd5b6109758b828c01610814565b93505060c089013567ffffffffffffffff81111561099257600080fd5b61099e8b828c01610814565b92505060e06109af8b828c01610868565b9150509295985092959890939650565b6109c881610b37565b82525050565b6109d781610b49565b82525050565b6109e681610b7f565b82525050565b60006109f782610b1b565b610a018185610b26565b9350610a11818560208601610bb2565b610a1a81610be5565b840191505092915050565b610a2e81610b75565b82525050565b6000602082019050610a4960008301846109bf565b92915050565b6000602082019050610a6460008301846109ce565b92915050565b6000602082019050610a7f60008301846109dd565b92915050565b60006020820190508181036000830152610a9f81846109ec565b905092915050565b6000602082019050610abc6000830184610a25565b92915050565b6000604051905081810181811067ffffffffffffffff82111715610ae557600080fd5b8060405250919050565b600067ffffffffffffffff821115610b0657600080fd5b601f19601f8301169050602081019050919050565b600081519050919050565b600082825260208201905092915050565b6000610b4282610b55565b9050919050565b60008115159050919050565b600073ffffffffffffffffffffffffffffffffffffffff82169050919050565b6000819050919050565b6000610b8a82610b91565b9050919050565b6000610b9c82610b55565b9050919050565b82818337600083830152505050565b60005b83811015610bd0578082015181840152602081019050610bb5565b83811115610bdf576000848401525b50505050565b6000601f19601f8301169050919050565b610bff81610b75565b8114610c0a57600080fd5b5056fea365627a7a723158203b560664890edeced4463a30f29dcc10b62b92e372b143ac17f00850dfbe890f6c6578706572696d656e74616cf564736f6c63430005100040",
  "source": "// SPDX-License-Identifier: GPL-3.0\npragma solidity >=0.4.22 <0.7.1; \npragma experimental ABIEncoderV2;\n \ncontract Evento  {\n    address owner;\n \n    enum StatoEvento  {attivo, annullato, concluso }\n    \n    uint id_evento;\n    string titolo;\n    string luogo;\n    string data;\n    string orario;\n    string artista;\n    string timestamp;\n    uint capienza;\n    StatoEvento stateEvento;\n\n    constructor() public {\n        owner = msg.sender;\n        length = 0;\n    }\n \n    modifier restricted()  {\n        if (msg.sender == owner) _; // TODO: verificare\n    }\n \n    Evento public evento;\n \n    uint256 length;\n \n    function storeItem(uint id_, string memory titolo_, string memory timestamp_, string memory luogo_, string memory data_, string memory orario_, string memory artista_, uint capienza_ ) public restricted  {\n        id_evento = id_; \n        timestamp = timestamp_;\n        titolo = titolo_; \n        luogo = luogo_;\n        data = data_; \n        orario = orario_; \n        artista = artista_;\n        capienza = capienza_;\n        stateEvento = StatoEvento.attivo; \n     }\n \n    function getEvento() public view returns (address) {\n        if(owner==address(0)){\n            return owner;\n        }\n    }\n    \n    \n    function getTitolo() public view returns (string memory){\n        return Evento.titolo;\n    }\n    \n    \n    function getLuogo() public view returns (string memory){\n        return Evento.luogo; \n    }\n \n    function isAnnulatoEvento() public view returns (bool) {\n       if(Evento.stateEvento == StatoEvento.annullato){\n            return true; \n        }else{\n            return false;\n        }\n    }\n    \n    function isAttivoEvento() public view returns (bool) {\n       if(Evento.stateEvento == StatoEvento.attivo){\n            return true; \n        }else{\n            return false;\n        }\n    }\n \n    function setAnnulatoEvento() public restricted  {\n        Evento.stateEvento = StatoEvento.annullato;\n    }\n    \n    function getStatoEvento() external view returns (string memory){\n        if(Evento.stateEvento == StatoEvento.attivo){\n            return \"Attivo\";\n        }else if(Evento.stateEvento == StatoEvento.annullato) {\n            return \"Annullato\"; \n        }else{\n            return \"Concluso\";\n        }\n    }\n    \n    function setConclusoEvento() public restricted  {\n        Evento.stateEvento = StatoEvento.concluso;\n    }\n    \n    function getCapienza() external view returns (uint256) {\n        return Evento.capienza;\n    }\n \n}\n \n",
  "sourcePath": "/home/emanuele/GitHub/SoftwareCybersecurityProject/contracts/Evento.sol",
  "compiler": {
    "name": "solc",
    "version": "0.5.16+commit.9c3226ce.Emscripten.clang"
  },
  "schemaVersion": "3.4.2",
  "updatedAt": "2021-07-24T07:38:29.661Z",
  "devdoc": {
    "methods": {}
  },
  "userdoc": {
    "methods": {}
  }
}