{
  "contractName": "LogVendita",
  "abi": [
    {
      "constant": true,
      "inputs": [
        {
          "name": "",
          "type": "uint256"
        }
      ],
      "name": "log_vendite",
      "outputs": [
        {
          "name": "id",
          "type": "uint256"
        },
        {
          "name": "evento",
          "type": "string"
        },
        {
          "name": "caller",
          "type": "address"
        },
        {
          "name": "timestamp",
          "type": "string"
        },
        {
          "name": "costo",
          "type": "string"
        },
        {
          "name": "cod_sigillo",
          "type": "string"
        }
      ],
      "payable": false,
      "stateMutability": "view",
      "type": "function"
    },
    {
      "inputs": [],
      "payable": false,
      "stateMutability": "nonpayable",
      "type": "constructor"
    },
    {
      "constant": false,
      "inputs": [
        {
          "name": "timestamp",
          "type": "string"
        },
        {
          "name": "evento",
          "type": "string"
        },
        {
          "name": "costo",
          "type": "string"
        },
        {
          "name": "cod_sigillo",
          "type": "string"
        }
      ],
      "name": "storeItem",
      "outputs": [],
      "payable": false,
      "stateMutability": "nonpayable",
      "type": "function"
    },
    {
      "constant": true,
      "inputs": [],
      "name": "getLog",
      "outputs": [
        {
          "components": [
            {
              "name": "id",
              "type": "uint256"
            },
            {
              "name": "evento",
              "type": "string"
            },
            {
              "name": "caller",
              "type": "address"
            },
            {
              "name": "timestamp",
              "type": "string"
            },
            {
              "name": "costo",
              "type": "string"
            },
            {
              "name": "cod_sigillo",
              "type": "string"
            }
          ],
          "name": "",
          "type": "tuple[]"
        }
      ],
      "payable": false,
      "stateMutability": "view",
      "type": "function"
    },
    {
      "constant": true,
      "inputs": [],
      "name": "getLength",
      "outputs": [
        {
          "name": "",
          "type": "uint256"
        }
      ],
      "payable": false,
      "stateMutability": "view",
      "type": "function"
    }
  ],
  "bytecode": "0x608060405234801561001057600080fd5b50336000806101000a81548173ffffffffffffffffffffffffffffffffffffffff021916908373ffffffffffffffffffffffffffffffffffffffff1602179055506000600281905550610e4d806100686000396000f300608060405260043610610062576000357c0100000000000000000000000000000000000000000000000000000000900463ffffffff1680635c7539bf14610067578063909e4ab6146100905780639c1c54bb146100bb578063be1c766b146100fd575b600080fd5b34801561007357600080fd5b5061008e600480360361008991908101906109fd565b610128565b005b34801561009c57600080fd5b506100a56102d1565b6040516100b29190610c49565b60405180910390f35b3480156100c757600080fd5b506100e260048036036100dd9190810190610ac0565b610619565b6040516100f496959493929190610c86565b60405180910390f35b34801561010957600080fd5b506101126108e4565b60405161011f9190610c6b565b60405180910390f35b6000809054906101000a900473ffffffffffffffffffffffffffffffffffffffff1673ffffffffffffffffffffffffffffffffffffffff163373ffffffffffffffffffffffffffffffffffffffff1614156102cb57600160c06040519081016040528060025481526020018581526020013373ffffffffffffffffffffffffffffffffffffffff16815260200186815260200184815260200183815250908060018154018082558091505090600182039060005260206000209060060201600090919290919091506000820151816000015560208201518160010190805190602001906102169291906108ee565b5060408201518160020160006101000a81548173ffffffffffffffffffffffffffffffffffffffff021916908373ffffffffffffffffffffffffffffffffffffffff160217905550606082015181600301908051906020019061027a9291906108ee565b5060808201518160040190805190602001906102979291906108ee565b5060a08201518160050190805190602001906102b49291906108ee565b505050506002600081548092919060010191905055505b50505050565b60606001805480602002602001604051908101604052809291908181526020016000905b82821015610610578382906000526020600020906006020160c0604051908101604052908160008201548152602001600182018054600181600116156101000203166002900480601f0160208091040260200160405190810160405280929190818152602001828054600181600116156101000203166002900480156103bc5780601f10610391576101008083540402835291602001916103bc565b820191906000526020600020905b81548152906001019060200180831161039f57829003601f168201915b505050505081526020016002820160009054906101000a900473ffffffffffffffffffffffffffffffffffffffff1673ffffffffffffffffffffffffffffffffffffffff1673ffffffffffffffffffffffffffffffffffffffff168152602001600382018054600181600116156101000203166002900480601f0160208091040260200160405190810160405280929190818152602001828054600181600116156101000203166002900480156104b45780601f10610489576101008083540402835291602001916104b4565b820191906000526020600020905b81548152906001019060200180831161049757829003601f168201915b50505050508152602001600482018054600181600116156101000203166002900480601f0160208091040260200160405190810160405280929190818152602001828054600181600116156101000203166002900480156105565780601f1061052b57610100808354040283529160200191610556565b820191906000526020600020905b81548152906001019060200180831161053957829003601f168201915b50505050508152602001600582018054600181600116156101000203166002900480601f0160208091040260200160405190810160405280929190818152602001828054600181600116156101000203166002900480156105f85780601f106105cd576101008083540402835291602001916105f8565b820191906000526020600020905b8154815290600101906020018083116105db57829003601f168201915b505050505081525050815260200190600101906102f5565b50505050905090565b60018181548110151561062857fe5b9060005260206000209060060201600091509050806000015490806001018054600181600116156101000203166002900480601f0160208091040260200160405190810160405280929190818152602001828054600181600116156101000203166002900480156106da5780601f106106af576101008083540402835291602001916106da565b820191906000526020600020905b8154815290600101906020018083116106bd57829003601f168201915b5050505050908060020160009054906101000a900473ffffffffffffffffffffffffffffffffffffffff1690806003018054600181600116156101000203166002900480601f01602080910402602001604051908101604052809291908181526020018280546001816001161561010002031660029004801561079e5780601f106107735761010080835404028352916020019161079e565b820191906000526020600020905b81548152906001019060200180831161078157829003601f168201915b505050505090806004018054600181600116156101000203166002900480601f01602080910402602001604051908101604052809291908181526020018280546001816001161561010002031660029004801561083c5780601f106108115761010080835404028352916020019161083c565b820191906000526020600020905b81548152906001019060200180831161081f57829003601f168201915b505050505090806005018054600181600116156101000203166002900480601f0160208091040260200160405190810160405280929190818152602001828054600181600116156101000203166002900480156108da5780601f106108af576101008083540402835291602001916108da565b820191906000526020600020905b8154815290600101906020018083116108bd57829003601f168201915b5050505050905086565b6000600254905090565b828054600181600116156101000203166002900490600052602060002090601f016020900481019282601f1061092f57805160ff191683800117855561095d565b8280016001018555821561095d579182015b8281111561095c578251825591602001919060010190610941565b5b50905061096a919061096e565b5090565b61099091905b8082111561098c576000816000905550600101610974565b5090565b90565b600082601f83011215156109a657600080fd5b81356109b96109b482610d30565b610d03565b915080825260208301602083018583830111156109d557600080fd5b6109e0838284610dc0565b50505092915050565b60006109f58235610db6565b905092915050565b60008060008060808587031215610a1357600080fd5b600085013567ffffffffffffffff811115610a2d57600080fd5b610a3987828801610993565b945050602085013567ffffffffffffffff811115610a5657600080fd5b610a6287828801610993565b935050604085013567ffffffffffffffff811115610a7f57600080fd5b610a8b87828801610993565b925050606085013567ffffffffffffffff811115610aa857600080fd5b610ab487828801610993565b91505092959194509250565b600060208284031215610ad257600080fd5b6000610ae0848285016109e9565b91505092915050565b610af281610d8c565b82525050565b6000610b0382610d69565b80845260208401935083602082028501610b1c85610d5c565b60005b84811015610b55578383038852610b37838351610b9c565b9250610b4282610d7f565b9150602088019750600181019050610b1f565b508196508694505050505092915050565b6000610b7182610d74565b808452610b85816020860160208601610dcf565b610b8e81610e02565b602085010191505092915050565b600060c083016000830151610bb46000860182610c3a565b5060208301518482036020860152610bcc8282610b66565b9150506040830151610be16040860182610ae9565b5060608301518482036060860152610bf98282610b66565b91505060808301518482036080860152610c138282610b66565b91505060a083015184820360a0860152610c2d8282610b66565b9150508091505092915050565b610c4381610dac565b82525050565b60006020820190508181036000830152610c638184610af8565b905092915050565b6000602082019050610c806000830184610c3a565b92915050565b600060c082019050610c9b6000830189610c3a565b8181036020830152610cad8188610b66565b9050610cbc6040830187610ae9565b8181036060830152610cce8186610b66565b90508181036080830152610ce28185610b66565b905081810360a0830152610cf68184610b66565b9050979650505050505050565b6000604051905081810181811067ffffffffffffffff82111715610d2657600080fd5b8060405250919050565b600067ffffffffffffffff821115610d4757600080fd5b601f19601f8301169050602081019050919050565b6000602082019050919050565b600081519050919050565b600081519050919050565b6000602082019050919050565b600073ffffffffffffffffffffffffffffffffffffffff82169050919050565b6000819050919050565b6000819050919050565b82818337600083830152505050565b60005b83811015610ded578082015181840152602081019050610dd2565b83811115610dfc576000848401525b50505050565b6000601f19601f83011690509190505600a265627a7a72305820d3cb06c7927fe54124aa071b9c12861c8555d2f50b251096712891a3140653c46c6578706572696d656e74616cf50037",
  "source": "// SPDX-License-Identifier: GPL-3.0\npragma solidity >=0.4.22 <0.7.1;\npragma experimental ABIEncoderV2;\n\ncontract LogVendita {\n\n    address owner;\n\n    //Cosa tracciamo di una vendita?\n    struct LogItem {\n        uint id;\n        string evento;\n        address caller;\n        string timestamp;\n        string costo;\n        string cod_sigillo; //Da mettere?\n\n        // 0 = ERROR, 1 = SUCCESS; Attualmente tolto anche dalla storeItem\n        //uint result;\n    }\n\n    LogItem[] public log_vendite;\n\n    uint256 length;\n\n    constructor() public {\n        owner = msg.sender;\n        length = 0;\n    }\n\n\n    modifier restricted() {\n        if (msg.sender == owner) _;\n    }\n\n\n    function storeItem(string memory timestamp, string memory evento, string memory costo, string memory cod_sigillo) public restricted {\n        log_vendite.push(LogItem({\n        id : length,\n        evento : evento,\n        caller : msg.sender,\n        timestamp : timestamp,\n        costo : costo,\n        cod_sigillo : cod_sigillo\n        }));\n        length++;\n\n\n    }\n\n    function getLog() public view returns (LogItem[] memory){\n        return log_vendite;\n    }\n\n\n    function getLength() public view returns (uint256){\n        return length;\n    }\n}\n",
  "sourcePath": "/Users/denisbernovschi/SoftwareCybersecurityProject/contracts/LogVendita.sol",
  "compiler": {
    "name": "solc",
    "version": "0.4.26+commit.4563c3fc.Emscripten.clang"
  },
  "schemaVersion": "2.0.3",
  "updatedAt": "2021-07-26T09:30:34.101Z"
}