{
  "contractName": "LogVendita",
  "abi": [
    {
      "constant": true,
      "inputs": [
        {
          "name": "",
          "type": "uint256"
        }
      ],
      "name": "log_vendite",
      "outputs": [
        {
          "name": "id",
          "type": "uint256"
        },
        {
          "name": "evento",
          "type": "string"
        },
        {
          "name": "caller",
          "type": "address"
        },
        {
          "name": "timestamp",
          "type": "string"
        },
        {
          "name": "costo",
          "type": "string"
        },
        {
          "name": "cod_sigillo",
          "type": "string"
        }
      ],
      "payable": false,
      "stateMutability": "view",
      "type": "function"
    },
    {
      "inputs": [],
      "payable": false,
      "stateMutability": "nonpayable",
      "type": "constructor"
    },
    {
      "constant": false,
      "inputs": [
        {
          "name": "timestamp",
          "type": "string"
        },
        {
          "name": "evento",
          "type": "string"
        },
        {
          "name": "costo",
          "type": "string"
        },
        {
          "name": "cod_sigillo",
          "type": "string"
        }
      ],
      "name": "storeItem",
      "outputs": [],
      "payable": false,
      "stateMutability": "nonpayable",
      "type": "function"
    },
    {
      "constant": true,
      "inputs": [],
      "name": "getLog",
      "outputs": [
        {
          "components": [
            {
              "name": "id",
              "type": "uint256"
            },
            {
              "name": "evento",
              "type": "string"
            },
            {
              "name": "caller",
              "type": "address"
            },
            {
              "name": "timestamp",
              "type": "string"
            },
            {
              "name": "costo",
              "type": "string"
            },
            {
              "name": "cod_sigillo",
              "type": "string"
            }
          ],
          "name": "",
          "type": "tuple[]"
        }
      ],
      "payable": false,
      "stateMutability": "view",
      "type": "function"
    },
    {
      "constant": true,
      "inputs": [],
      "name": "getLength",
      "outputs": [
        {
          "name": "",
          "type": "uint256"
        }
      ],
      "payable": false,
      "stateMutability": "view",
      "type": "function"
    }
  ],
  "bytecode": "0x608060405234801561001057600080fd5b50336000806101000a81548173ffffffffffffffffffffffffffffffffffffffff021916908373ffffffffffffffffffffffffffffffffffffffff1602179055506000600281905550610e59806100686000396000f3fe60806040526004361061005c576000357c0100000000000000000000000000000000000000000000000000000000900480635c7539bf14610061578063909e4ab61461008a5780639c1c54bb146100b5578063be1c766b146100f7575b600080fd5b34801561006d57600080fd5b50610088600480360361008391908101906109f7565b610122565b005b34801561009657600080fd5b5061009f6102cb565b6040516100ac9190610c43565b60405180910390f35b3480156100c157600080fd5b506100dc60048036036100d79190810190610aba565b610613565b6040516100ee96959493929190610c80565b60405180910390f35b34801561010357600080fd5b5061010c6108de565b6040516101199190610c65565b60405180910390f35b6000809054906101000a900473ffffffffffffffffffffffffffffffffffffffff1673ffffffffffffffffffffffffffffffffffffffff163373ffffffffffffffffffffffffffffffffffffffff1614156102c557600160c06040519081016040528060025481526020018581526020013373ffffffffffffffffffffffffffffffffffffffff16815260200186815260200184815260200183815250908060018154018082558091505090600182039060005260206000209060060201600090919290919091506000820151816000015560208201518160010190805190602001906102109291906108e8565b5060408201518160020160006101000a81548173ffffffffffffffffffffffffffffffffffffffff021916908373ffffffffffffffffffffffffffffffffffffffff16021790555060608201518160030190805190602001906102749291906108e8565b5060808201518160040190805190602001906102919291906108e8565b5060a08201518160050190805190602001906102ae9291906108e8565b505050506002600081548092919060010191905055505b50505050565b60606001805480602002602001604051908101604052809291908181526020016000905b8282101561060a578382906000526020600020906006020160c0604051908101604052908160008201548152602001600182018054600181600116156101000203166002900480601f0160208091040260200160405190810160405280929190818152602001828054600181600116156101000203166002900480156103b65780601f1061038b576101008083540402835291602001916103b6565b820191906000526020600020905b81548152906001019060200180831161039957829003601f168201915b505050505081526020016002820160009054906101000a900473ffffffffffffffffffffffffffffffffffffffff1673ffffffffffffffffffffffffffffffffffffffff1673ffffffffffffffffffffffffffffffffffffffff168152602001600382018054600181600116156101000203166002900480601f0160208091040260200160405190810160405280929190818152602001828054600181600116156101000203166002900480156104ae5780601f10610483576101008083540402835291602001916104ae565b820191906000526020600020905b81548152906001019060200180831161049157829003601f168201915b50505050508152602001600482018054600181600116156101000203166002900480601f0160208091040260200160405190810160405280929190818152602001828054600181600116156101000203166002900480156105505780601f1061052557610100808354040283529160200191610550565b820191906000526020600020905b81548152906001019060200180831161053357829003601f168201915b50505050508152602001600582018054600181600116156101000203166002900480601f0160208091040260200160405190810160405280929190818152602001828054600181600116156101000203166002900480156105f25780601f106105c7576101008083540402835291602001916105f2565b820191906000526020600020905b8154815290600101906020018083116105d557829003601f168201915b505050505081525050815260200190600101906102ef565b50505050905090565b60018181548110151561062257fe5b9060005260206000209060060201600091509050806000015490806001018054600181600116156101000203166002900480601f0160208091040260200160405190810160405280929190818152602001828054600181600116156101000203166002900480156106d45780601f106106a9576101008083540402835291602001916106d4565b820191906000526020600020905b8154815290600101906020018083116106b757829003601f168201915b5050505050908060020160009054906101000a900473ffffffffffffffffffffffffffffffffffffffff1690806003018054600181600116156101000203166002900480601f0160208091040260200160405190810160405280929190818152602001828054600181600116156101000203166002900480156107985780601f1061076d57610100808354040283529160200191610798565b820191906000526020600020905b81548152906001019060200180831161077b57829003601f168201915b505050505090806004018054600181600116156101000203166002900480601f0160208091040260200160405190810160405280929190818152602001828054600181600116156101000203166002900480156108365780601f1061080b57610100808354040283529160200191610836565b820191906000526020600020905b81548152906001019060200180831161081957829003601f168201915b505050505090806005018054600181600116156101000203166002900480601f0160208091040260200160405190810160405280929190818152602001828054600181600116156101000203166002900480156108d45780601f106108a9576101008083540402835291602001916108d4565b820191906000526020600020905b8154815290600101906020018083116108b757829003601f168201915b5050505050905086565b6000600254905090565b828054600181600116156101000203166002900490600052602060002090601f016020900481019282601f1061092957805160ff1916838001178555610957565b82800160010185558215610957579182015b8281111561095657825182559160200191906001019061093b565b5b5090506109649190610968565b5090565b61098a91905b8082111561098657600081600090555060010161096e565b5090565b90565b600082601f83011215156109a057600080fd5b81356109b36109ae82610d2a565b610cfd565b915080825260208301602083018583830111156109cf57600080fd5b6109da838284610dcc565b50505092915050565b60006109ef8235610dc2565b905092915050565b60008060008060808587031215610a0d57600080fd5b600085013567ffffffffffffffff811115610a2757600080fd5b610a338782880161098d565b945050602085013567ffffffffffffffff811115610a5057600080fd5b610a5c8782880161098d565b935050604085013567ffffffffffffffff811115610a7957600080fd5b610a858782880161098d565b925050606085013567ffffffffffffffff811115610aa257600080fd5b610aae8782880161098d565b91505092959194509250565b600060208284031215610acc57600080fd5b6000610ada848285016109e3565b91505092915050565b610aec81610d86565b82525050565b6000610afd82610d63565b80845260208401935083602082028501610b1685610d56565b60005b84811015610b4f578383038852610b31838351610b96565b9250610b3c82610d79565b9150602088019750600181019050610b19565b508196508694505050505092915050565b6000610b6b82610d6e565b808452610b7f816020860160208601610ddb565b610b8881610e0e565b602085010191505092915050565b600060c083016000830151610bae6000860182610c34565b5060208301518482036020860152610bc68282610b60565b9150506040830151610bdb6040860182610ae3565b5060608301518482036060860152610bf38282610b60565b91505060808301518482036080860152610c0d8282610b60565b91505060a083015184820360a0860152610c278282610b60565b9150508091505092915050565b610c3d81610db8565b82525050565b60006020820190508181036000830152610c5d8184610af2565b905092915050565b6000602082019050610c7a6000830184610c34565b92915050565b600060c082019050610c956000830189610c34565b8181036020830152610ca78188610b60565b9050610cb66040830187610ae3565b8181036060830152610cc88186610b60565b90508181036080830152610cdc8185610b60565b905081810360a0830152610cf08184610b60565b9050979650505050505050565b6000604051905081810181811067ffffffffffffffff82111715610d2057600080fd5b8060405250919050565b600067ffffffffffffffff821115610d4157600080fd5b601f19601f8301169050602081019050919050565b6000602082019050919050565b600081519050919050565b600081519050919050565b6000602082019050919050565b6000610d9182610d98565b9050919050565b600073ffffffffffffffffffffffffffffffffffffffff82169050919050565b6000819050919050565b6000819050919050565b82818337600083830152505050565b60005b83811015610df9578082015181840152602081019050610dde565b83811115610e08576000848401525b50505050565b6000601f19601f830116905091905056fea265627a7a72305820d65665197bd30b0c0bd5a9e7a2b020acf49aa9c8e4864efab5bb76d57dde1a336c6578706572696d656e74616cf50037",
  "source": "// SPDX-License-Identifier: GPL-3.0\npragma solidity >=0.4.22 <0.7.1;\npragma experimental ABIEncoderV2;\n\ncontract LogVendita {\n\n    address owner;\n\n    //Cosa tracciamo di una vendita?\n    struct LogItem {\n        uint id;\n        string evento;\n        address caller;\n        string timestamp;\n        string costo;\n        string cod_sigillo; //Da mettere?\n\n        // 0 = ERROR, 1 = SUCCESS; Attualmente tolto anche dalla storeItem\n        //uint result;\n    }\n\n    LogItem[] public log_vendite;\n\n    uint256 length;\n\n    constructor() public {\n        owner = msg.sender;\n        length = 0;\n    }\n\n\n    modifier restricted() {\n        if (msg.sender == owner) _;\n    }\n\n\n    function storeItem(string memory timestamp, string memory evento, string memory costo, string memory cod_sigillo) public restricted {\n        log_vendite.push(LogItem({\n        id : length,\n        evento : evento,\n        caller : msg.sender,\n        timestamp : timestamp,\n        costo : costo,\n        cod_sigillo : cod_sigillo\n        }));\n        length++;\n\n\n    }\n\n    function getLog() public view returns (LogItem[] memory){\n        return log_vendite;\n    }\n\n\n    function getLength() public view returns (uint256){\n        return length;\n    }\n}\n",
  "sourcePath": "/home/emanuele/GitHub/SoftwareCybersecurityProject/contracts/LogVendita.sol",
  "compiler": {
    "name": "solc",
    "version": "0.5.1+commit.c8a2cb62.Emscripten.clang"
  },
  "schemaVersion": "3.4.2",
  "updatedAt": "2021-07-26T07:41:42.375Z",
  "devdoc": {
    "methods": {}
  },
  "userdoc": {
    "methods": {}
  }
}